:020000040800F2
:1000000000800120A9E0000879A300087BA3000874
:100010007DA300087FA3000881A300080000000062
:1000200000000000000000000000000083A30008A2
:1000300085A300080000000087A3000889A300082A
:10004000F9E00008F9E00008F9E00008F9E000082C
:10005000F9E00008F9E00008F9E00008F9E000081C
:10006000F9E00008F9E00008F9E00008F9E000080C
:10007000F9E00008F9E00008F9E00008F9E00008FC
:10008000F9E00008F9E00008F9E0000800000000CD
:10009000000000000000000000000000F9E000087F
:1000A000F9E00008F9E00008F9E00008F9E00008CC
:1000B000F9E00008F9E00008F9E00008F9E00008BC
:1000C000F9E00008F9E00008F9E00008F9E00008AC
:1000D000F9E00008F9E00008F9E00008000000007D
:1000E000F9E00008F9E00008F9E00008000000006D
:1000F000000000000000000000000000F9E000081F
:1001000000000000F9E00008F9E00008F9E000084C
:1001100000000000000000000000000000000000DF
:10012000F9E00008F9E00008F9E00008F9E000084B
:10013000F9E00008000000000000000000000000DE
:10014000000000000000000000000000F9E00008CE
:10015000F9E00008F9E00008F9E00008F9E000081B
:10016000F9E00008F9E000080000000000000000CD
:10017000000000000000000000000000000000007F
:1001800000000000F9E0000800000000000000008E
:04019000F9E000088A
:1001A00010B5054C237833B9044B13B10448AFF3B1
:1001B00000800123237010BDC80B00200000000048
:1001C0009C3E010808B5034B1BB103490348AFF33C
:1001D000008008BD00000000CC0B00209C3E010800
:1001E000034613F8012B002AFBD1181A0138704777
:1001F00001F0FF01102A2BDB10F0070F08D010F8D8
:10020000013B013A8B422DD010F0070F42B3F6D1DB
:10021000F0B441EA012141EA014122F007047FF0F4
:1002200000070023F0E80256083C85EA010586EA4B
:10023000010685FA47F5A3FA87F586FA47F6A5FA87
:1002400087F68EB9EED1F0BC01F0FF0102F0070293
:1002500032B110F8013B013A83EA010313B1F8D13E
:100260000020704701387047002D06BF354603381F
:10027000073815F0010F07D1013015F4807F02BF58
:10028000013015F4C03F0130F0BC0138704700BFA9
:10029000F0EE400AF5EE400AF1EE10FA9FED290A61
:1002A00001DBB1EEE00A704711F0ECBA11F08EBB41
:1002B00011F092B911F0B2BAB5EE400AF1EE10FAAF
:1002C00048BF9FED200A7047B5EE400AF1EE10FAE4
:1002D00048BF20EE200A704700B581B0B1EE400A59
:1002E00011F0D0FAF7EE000A30EE200AB7EE001A4D
:1002F00081EE000A01B000BDF0EE400A9FED121A37
:10030000B6EE000A00EE810ADFED100AB4EE600AD4
:10031000F1EE10FA07DAB5EE400AF1EE10FA04D564
:100320009FED080A7047B7EE000A7047B5EE400A25
:10033000F1EE10FACCBF9FED060A9FED060AB8EE6B
:10034000C00A704700000000CDCC4C3E0100803F49
:1003500001000000FFFFFFFF80EE200A704780EEE3
:10036000200A10F033BF11F0CBBAF4EE400AF1EEE0
:1003700010FA58BFB0EE600A7047B4EE600AF1EEB2
:1003800010FA58BFB0EE600A704720EE200A70479E
:1003900030EE600A704730EE200A704770B484B0C7
:1003A0006946002200230024002581E83C0000214A
:1003B00041F001018DF800106A4692E8780080E86B
:1003C000780004B070BC7047F0B5040081B008BF7D
:1003D000002026D014480022002300252CC02CC069
:1003E0002CC02438012600F1180200F1180386728F
:1003F00006848261C36131B10A784B788D784E688A
:100400008F68C96803E001220023002600270272DA
:10041000437241618572C660076100F028FA20606E
:10042000012001B0F0BD0000E40B002070B500F029
:1004300000FA040001D1002070BDA069A0F13C05C4
:1004400004F11802E96B9042A1F13C0615D028682E
:1004500001F0EBFAE96B286C4860296CE86B0860E6
:10046000284600F0CAFDF06B04F11802354605F18C
:100470003C019142A0F13C06E9D1012070BD2DE97B
:10048000F0410C4600F0D5F9050018BF002C33D020
:10049000206888B3442000F0A3FD06002CD0288CEF
:1004A000411C2984308705F11801B4E88D51A6E874
:1004B0008D51B4E88D51A6E88D51383E06F13C04CB
:1004C00024603464A869206061604460AC6105F117
:1004D0000801306801F0D0F910B1308FBDE8F0812B
:1004E0002168306C4860306C22680260304600F051
:1004F00084FD288C411E29840020BDE8F08130B5A0
:1005000081B00D4600F095F900283DD029003BD080
:1005100050F8181F00E0E16BA1F13C0404F13C022B
:10052000824231D0218FA9421DD0E26BA2F13C045E
:1005300004F13C01814227D0228FAA4213D0E16B03
:10054000A1F13C0404F13C0282421DD0218FA9425A
:1005500009D0E26BA2F13C0404F13C01814213D0CA
:10056000228FAA42D7D17CB1206801F05EFA60B137
:10057000E16B206C4860216CE06B0860204600F065
:100580003CFD012001B030BD002001B030BD30B5D0
:1005900081B00D46144600F04CF9002818BF002C1D
:1005A0002FD000F11801086800E0C06B3C3800F162
:1005B0003C028A4225D0038FAB421AD0C06B3C3834
:1005C00000F13C028A421CD0038FAB4211D0C06BB9
:1005D0003C3800F13C028A4213D0038FAB4208D072
:1005E000C06B3C3800F13C028A420AD0038FAB4218
:1005F000DBD130B10068214601B0BDE8304001F0E8
:10060000FCB9002001B030BD70B50E4614461D4641
:1006100000F00FF9002818BF002C2FD000F11801AE
:10062000086800E0C06B3C3800F13C028A4225D0EB
:10063000038FB3421AD0C06B3C3800F13C028A42AF
:100640001CD0038FB34211D0C06B3C3800F13C0288
:100650008A4213D0038FB34208D0C06B3C3800F1FC
:100660003C028A420AD0038FB342DBD130B100682A
:100670002A462146BDE8704000F0ACBA002070BDAB
:100680002DE9F24F0025AA4682B00746AB46D04678
:10069000D14628E000201CE050F80A4064B3B86856
:1006A00041688068404401EB09060090A169086830
:1006B00008F020F830600121B180E068C168F18065
:1006C000826832814068F060A1698A68326100986E
:1006D000E0B970616D1C0BF1010B09F1180908F10B
:1006E00008080AF1040A002F14BF38880020834547
:1006F00002D278680028CFD1A8B218B1B9680298A0
:100700004A680260A8B203B0BDE8F08F00990020EB
:100710000860009A2068506000281CBF40880028AC
:10072000B8D00098012101600098D2E730B4D368B6
:100730005569DC68EB685C4384608D886C43C460F9
:100740000969C36841601944016092691468A10095
:1007500007D49468D1684368641A19199160406895
:10076000D06030BC7047DFF81408016849084900C0
:1007700001600120DFF80818886088680028FCD133
:10078000DFF800280A600868DFF8FC17884200D00C
:10079000FEE7ADA07047DFF8E407016849084900AB
:1007A00001600120DFF8D817886088680028FCD134
:1007B000DFF8D0270A600868DFF8CC17884200D03D
:1007C000FEE70FF2D07210687047DFF8B0070168DB
:1007D0004908490001600120DFF8A4178860886893
:1007E0000028FCD1DFF89C270A600868DFF898171A
:1007F000884200D0FEE70FF2A07210687047DFF861
:100800007C0701684908490001600120DFF8701782
:10081000886088680028FCD1DFF868270A600868CB
:10082000DFF86417884200D0FEE70FF2707210689C
:10083000704720B10168DFF85427914200D00020B2
:10084000DFF838170A68520852000A600121DFF801
:100850003027916091680029FCD1DFF828371360B8
:100860001168DFF82427914200D0FEE77047DFF8D7
:100870001C170160704720B10168DFF81027914212
:1008800000D00020DFF8F4160A68520852000A600F
:100890000121DFF8EC26916091680029FCD1DFF896
:1008A000E43613601168DFF8E026914200D0FEE7DD
:1008B00000281CBF103000F083BB0FF2F46000680A
:1008C000704700281CBF103000F07FBB70472DE937
:1008D000F04F5FEA000981B00C4605D0D9F800005E
:1008E000DFF8A816884201D04FF00009DFF88C56D7
:1008F000DFF88C6628684008400028600121B1605C
:10090000B0680028FCD1DFF87C76DFF87C863760A1
:100910003068404500D0FEE7B9F1000F18BF002C49
:1009200034D00020E066D9F8502052B100E00246F1
:10093000E16E491CE166D068824218BF0028F6D1FA
:1009400011B9182211211DE0B9F8480008B1D9F8F1
:100950004C0004F13401FFF793FE208610B91822F1
:1009600012210FE0B9F848000228A6BFD9F84C00C0
:100970000C30002004F13801FFF782FE608648B990
:100980001822132109F1100000F01FFB002001B014
:10099000BDE8F08FD9F80400206709F1300292E831
:1009A000095C04F13C0109F1180981E8095C99E846
:1009B0000E5404F1540080E80E54286840084000AA
:1009C00028600123B360B0680028FCD1376031682B
:1009D000414500D0FEE71CA0206129684908490074
:1009E0002960B360B0680028FCD1376031684145A8
:1009F00000D0FEE70FF29C50026862612968490846
:100A000049002960B360B0680028FCD137603168C4
:100A1000414500D0FEE70FF280500268626229680B
:100A2000490849002960B360B0680028FCD13760EC
:100A30003168414500D0FEE70FF260500268A262C3
:100A4000012001B0BDE8F08F0000000070B5049DEA
:100A500004460598DBB22D0445EA036545EA002506
:100A60000FF250500668DFF8140501684908490084
:100A700001600120DFF80815886088680028FCD133
:100A8000DFF800350B600868DFF8FC14884200D0FE
:100A9000FEE71CB90FF22050006870BDDFF8EC14BF
:100AA0001160226000F08AFA10B90FF2F4400DE0F4
:100AB000DFF8DC148D4228BF0FF2E84006D20FF2B7
:100AC000E84001F0DDF920B90FF2E04006680021AE
:100AD0002160304670BD30B10168DFF8B02491422A
:100AE00008BF024600D00022DFF890140B685B08B4
:100AF0005B000B600121DFF8883499609968002958
:100B0000FCD1DFF880C4C3F800C01968DFF878347E
:100B1000994200D0FEE702B1002070472DE9F04F66
:100B200081B00A4620B10168DFF86034994200D0F4
:100B30000020DFF848140B685B085B000B600121A4
:100B4000DFF83C34996099680029FCD1DFF834441F
:100B50001C601968DFF83034994200D0FEE70028A5
:100B600035D00AB9112212E01369916A39B9118C92
:100B7000D58B546A6943614318BF132207D173B9F7
:100B80001189D488D3686143594308D012221021B7
:100B9000103000F01AFA002001B0BDE8F08FB2E882
:100BA000F81000F1180100F1300E81E8F81092E819
:100BB0000A0F8EE80A0F0321026DC1603AB100E00E
:100BC0000A46D16890608A4218BF0029F8D101B066
:100BD000BDE8F08F2DE9F44F82B00A4620B10168DC
:100BE000DFF8A833994200D00020DFF890130B689B
:100BF0005B085B000B600121DFF884339960996822
:100C00000029FCD1DFF87C431C601968DFF87833D9
:100C1000994200D0FEE7002800F01381B0F8481098
:100C200001B1C16C0023C3820024037B848203F0E2
:100C30000303032B02D030221121FFE0002A1EBF44
:100C400000290B88002B00F0F780B2F804B0009167
:100C5000A046A1460026171D824614E0F868002829
:100C600000F0E9803888002852D0584528BF8346D4
:100C70002246391F2846FFF759FD08F101081837A9
:100C8000103609F104090098018888454AD2406865
:100C900000281CBF50F80940002C43D00098816800
:100CA0000A68951900F0C780A06941687B88BA88F6
:100CB000B86803FB02FC00FB0CFC61452DD3D4F8A3
:100CC0000CC0DCF80CE09E4501BFDCF80830934214
:100CD000DCF80420824220D1A069006807F0E2FD20
:100CE000E168CA686169CB685A43904215D3A0692C
:100CF000006807F0FFFC57F8041C20F07E4021F04C
:100D00007E418842AAD0192212210AF1100096E0F1
:100D1000212212210AF1100091E0182212210AF179
:100D200010008CE002990029554675D0B5F84800AE
:100D300002287BDBE86C0C301CBF0288002A75D0CF
:100D40004FF00008C14600260F1D009013E0F86820
:100D5000002859D03888002851D0584528BF8346EC
:100D60002246391F2846FFF7E1FC08F10108183731
:100D7000103609F1040900980188884549D2406875
:100D800000281CBF50F80940002C42D00098816810
:100D90000A68951938D0A06941687B88BA88B86814
:100DA00003FB02FC00FB0CFC61453ED3D4F80CC0F5
:100DB000DCF80CE09E4501BFDCF808309342DCF81B
:100DC0000420824231D1A069006807F06BFDE16820
:100DD000CA686169CB685A43904226D3A06900680B
:100DE00007F088FC57F8041C20F07E4021F07E417B
:100DF0008842ACD0192213210AF110001FE02122F1
:100E000013210AF110001AE0172213210AF1100031
:100E100015E05546A5F814B0B5F84800002814BFF1
:100E2000D5F84CA04FF0000A0FE0554618221321C8
:100E300005F1100003E0504617221221103000F097
:100E4000C4F8002003B0BDE8F08F0228A6BFE86C0C
:100E500000F10C0B4FF0000BE88AA98AB0EB010FF0
:100E600080F087804FF000085446C146C24618E023
:100E70008268C3687168D21A114481607268C26066
:100E80007068B168084470603168884202D3F068C5
:100E90004042084470600AF1010A09F1100908F1A2
:100EA0000408002C14BF20880020824512D26068FC
:100EB00080B150F8080068B1A16880690A680168CB
:100EC00002EB09068A00D3D5B268716880680FF01A
:100ED0009CFDD5E7A246284601F07CF84FF00008BB
:100EE0005C46C146C34617E07168B2681144716040
:100EF0003268914202D3F1684942114471608268BC
:100F0000C368D21A114481607268C2600BF1010B90
:100F100009F1100908F10408002C14BF20880020F2
:100F200083451DD26068D8B150F80800C0B1A168EF
:100F300080690A68016802EB09068A00D4D58168D5
:100F4000B26870680FF061FD7068B1680844706045
:100F50003168884202D3F068404208447060D5E7A7
:100F6000E88AA98A401CE882A34680B28842FFF43E
:100F700079AFE88A03B0BDE8F08F0000002000E000
:100F800000300240C2A507F4CDB5E8B50001C0A10C
:100F90000100030104010000010100000103000041
:100FA00030100000011000000384048402100000CF
:100FB0001010000000000000101000000120704719
:100FC0000146002208680A60704703785FEA036CF4
:100FD00004D141EA022101600120704700207047DE
:100FE000002800D1704700B581B0001D09F06AFFEC
:100FF00008B10060001D01B000BD002800D170479D
:1010000000B581B050F8042C011F8A4206D129B1E5
:1010100000200860084609F07BFF002001B000BDF9
:1010200000B581B020B9C1B1081D09F04BFF0EE039
:1010300019B901B05DF804EBDFE7021F50F8040CAA
:10104000904209D142B1091D10460FF0EFFC20B1CA
:10105000006001B0001D00BD002001B000BD000017
:10106000F0B504000D4614BF002D002081B025D03E
:1010700000202860A860E8600026002717E041688B
:10108000104607F00FFC0AE0C059002815D01CBF1D
:101090008069002806D002685100F0D50020A968B8
:1010A0004018A860761C2868401C28603F1D2088D6
:1010B000864202D260680028E6D1286801B0F0BDFF
:1010C0002DE9F14F90B08268906800908668109882
:1010D000F60906F001068DF80460436918880028B7
:1010E00019BF5C68089400250895022804DB59683C
:1010F00001F10C03079301E0002107910023D08A3E
:101100000690918A10980B910D93116D884240F0D2
:10111000F38000994B61009AD069002840F0EC8080
:1011200098460B9D93690027002433B3D90704D553
:10113000516ACF68D1F81C80012458081DD011468F
:101140004A6A1FFA84FCCCEBCC0E02EBCE0C641C7A
:10115000DCF80C904F441FFA84FEDCF81CC0CEEB88
:10116000CE0902EBC902E044D2F80CC0D269641C7B
:10117000401E67449044E3D1009103EB4300C0005C
:10118000029002460098D0F834A0C16B7F010AFBA0
:10119000057A0AF10300800802EB41114FEA800A48
:1011A0003B3130004FEA48184FEA91090AD00098C5
:1011B000816B01FB0581C91C0AEB8902890802EBDE
:1011C000810B01E04FEA890B0098046A54B1826AEE
:1011D00012B1006B21469047616B59450AD22046F7
:1011E000FFF70BFF5846FFF7FBFE040000F084807A
:1011F000C4F834B004F13800A06104F13801029859
:101200000844E0610099CA6B02EB420300EBC300A3
:1012100020623EB104EB890000EB0A01C21901EB28
:10122000080303E000210020002300226062236302
:10123000E262A1620098DFF86C2804620099CD6137
:10124000009813680169236000205B1C13606060D4
:10125000009BDA68A260009B9A69E2602061A26943
:1012600062610A6D002A47D00A90039200E0039061
:101270000A9B581C0A900098016A00980491C5695D
:10128000039842691088002814BF51680021022881
:1012900004DB526802F10C040C9401E000220C9271
:1012A00003EB4306049A009F54690098806804EB9E
:1012B000C6027C6AC3EBC30604EBC603039C02931D
:1012C000C009238813800024039E73885380946090
:1012D00000F00100029BDC6894810028029BDC691D
:1012E000D48147D100215061116103980399C068EE
:1012F000814218BF0028BAD10098026A4169536937
:10130000009801EB410403EBC4040394D3690493F4
:10131000C1EBC103D2F820B0426A069802EBC301C8
:101320000291401C0399888003990B98C88000980B
:10133000C1690B98814204D1029901F12C0007F098
:101340000EFC009841681098826891600298109A8B
:10135000416841F0010111619DF80400002800F08E
:1013600004814FF00009089C069E0D9FDDF80C805B
:10137000CA46E9E00498436A0298046903EB441002
:1013800010610027049B9C6A029B1E6A04EB4614B2
:101390005461001D049BDC6A029B9E69938909913C
:1013A0006E43264403EB4304B84600EBC409BA4637
:1013B000059221E0002049F8040C2068C9F80000DB
:1013C00000281CBF4088002807BF002149F8041CE2
:1013D000012249F8042C00BFCBF814107F1CA0692F
:1013E0004168006807F05EFA684306440AF1180A8B
:1013F00009F1080908F10408099800B1008887423A
:1014000021D209984068F0B150F80840DCB1059845
:101410000169A069006801EB0A0B07F06BF9CBF8D2
:101420000000ABF80450E068C168ABF80610B9F1F1
:1014300004018268ABF808204068CBF80C00CBF8B8
:101440001060B7D1C8E70498026B02980599836AC7
:1014500048696B43D618CB89021D03EB430402EBAA
:10146000C40900270C9C0295B846BA46059124E0B1
:10147000002049F8040C00210EE0002049F8040C7B
:101480002868C9F8000000281CBF40880028EFD059
:101490005FF0010249F8042CCBF814107F1CA869F6
:1014A0004168029D006807F0FDF945432E440AF1AA
:1014B000180A09F1080908F10408002C14BF208853
:1014C00000208742BFF411AF606800281CBF50F8AD
:1014D0000850002D3FF409AF05984169A8690068DC
:1014E00001EB0A0B07F006F9CBF800000298ABF805
:1014F0000400E868C168ABF80610B9F1040182681D
:10150000ABF808204068CBF80C00CBF81060B4D1E1
:10151000C2E7A9690868420012D4496807F0C2F915
:10152000AB699968D8F8103003F1100507EB470351
:10153000DB000246EB58704318440FF066FA7F1C3C
:1015400009F101090AF1040A002C14BF20880020C7
:10155000814506D2606800281CBF50F80A50002D53
:10156000D7D108940696CDF80C80009AD06A00284E
:101570006AD0039890E8FC0009A981E8FC0004996E
:10158000089C0D9100220E92ADF832200026002713
:1015900090460BE0002003E00A004BF83610F9D02B
:1015A000C9F81400761C7F1C08F10408002C14BF35
:1015B00020880020874235D2606898B350F80850E0
:1015C00085B3A96908684200EDD4D1F808A00D9947
:1015D00006EB460201EBC20907F08CF8C9F80000DF
:1015E0000120A9F80400E868C168A9F8061082681B
:1015F000A9F808204068C9F80C00C9F810A01BEB36
:10160000C600CDD000214BF836100BF1040229683A
:1016100042F836100029BFD04988491E8941C94384
:10162000C90FB9E70298009B90ED0D0A0098B8EE3B
:10163000400ADFED900A60EE200ACDED0B0A006B48
:10164000DC6A002209A9A0471098B0F9000000F058
:10165000B3FC0028029806D02C3007F086FA1098C8
:101660000269904702E02C3007F07FFA02982C3094
:1016700007F085FA9DF8040090B30027079C069EAA
:10168000DDF80C80B946BA461AE0A969086842003C
:1016900012D4496807F006F9AB699968D8F8143094
:1016A00003F1100507EB4703DB000246EB587043DC
:1016B00018440FF0AAF97F1C09F101090AF1040A84
:1016C000002C14BF20880020814506D260680028C5
:1016D0001CBF50F80A50002DD7D10794CDF80C80CC
:1016E0000099C86A00286BD0039A92E8F81008A9FC
:1016F00081E8F8100021ADF82C100C910026049818
:10170000079C0D90002788460CE0002004E00A00AA
:101710004BF836103FF4F9AFC9F81400761C7F1C63
:1017200008F10408002C14BF20880020874235D21D
:10173000606898B350F8085085B3A96908684200FA
:10174000EDD4D1F808A00D9906EB460201EBC209D1
:1017500006F0D0FFC9F800000120A9F80400E868ED
:10176000C168A9F806108268A9F808204068C9F87D
:101770000C00C9F810A01BEBC600CDD000214BF81F
:1017800036100BF10402296842F836100029BED049
:101790004988491E8941C943C90FB8E70298009B8F
:1017A00090ED0D0A0098B8EE400ADFED320A60EEC7
:1017B000200ACDED0A0A006BDC6A012208A9A047C5
:1017C00010998A680098906002988168109841F09A
:1017D000010101611099C868814218BF002841D1F8
:1017E0000098C268521CC2600099C869401EC86156
:1017F00038D10098036A99688068521A9A60C009C3
:1018000000221A6100F0010000998A6900249FED0E
:10181000190A3AB34D6A3435C4EBC40605EBC60663
:101820005D69D6ED000A04EB4406F60005F10807F1
:10183000F8EE600A374460EE800AC7ED000A93EDC7
:10184000041A71EE200AC3ED040A30B905F1140C34
:1018500000274CF806701035AF51641CA4B29442B6
:10186000D8D3009100984169491C416111B0BDE88D
:10187000F08F00006F12833A2DE9F04F83B00C46D1
:10188000FEF7D7FF0026009000281CBF016D00293D
:1018900010D000E00146C868761C814218BF0028BD
:1018A000F8D13EB1C6EBC600C0004030FFF798FB50
:1018B000050003D1002003B0BDE8F08F7A49016034
:1018C000002C14BF616800218162002C14BFA16844
:1018D0000021C162002C14BFE16800210163002CCB
:1018E00014BF21780121816000998A68426000213B
:1018F000C160009A4161026100F140010022416231
:101900008661C2610262002600998860924667493A
:1019100041F0010102919146029901916A63AA6323
:1019200090460098006D002855D00746686ACAEBBB
:10193000CA0110EBC1040198A0600AF1010A08BFB6
:101940004FF0000B22D078682060396941F0010126
:101950006160029840F0010038617969088808B137
:10196000D1F8040004F10C01FFF77AFB8346786993
:1019700001880229A6BF40680C30002004F11C0138
:10198000FFF76EFB834538BF834600BFC4F8109055
:10199000C4F82080B345E068E1698144686BA061C8
:1019A0008844A96BA16228BF5E46686B616908180C
:1019B0006863616AA86B0818A863B7F9000000F0B3
:1019C00073FA014604F12C0007F0B4F8F868874276
:1019D00018BF0028A9D1686BEE63C01C8008800086
:1019E0006863A86BC01C80088000A863009803B0DF
:1019F000BDE8F04F011D00F00BB9F0B581B00C4609
:101A0000FEF717FF002818BF002C02D08168096A72
:101A100011B9002001B0F0BD91E8EC1084E8EC10A1
:101A20004068606001B00120F0BD30B581B0FEF7C4
:101A300000FF0146002300291CBF8C68002C03D046
:101A40002068194A904202D0002001B030BD0A6DD2
:101A50009AB100E00246606AC3EBC30500EBC50023
:101A60005B1C28B105685560406840F001001061BA
:101A7000D068824218BF0028ECD160688860216A73
:101A800029B92046FFF7B9FA012001B030BDA26A9A
:101A90000AB1206B9047206AFFF7AFFA002020625E
:101AA000EFE70000000000200101C0A1C110000804
:101AB000F0B581B00C46002100910CB101682160A5
:101AC000271D066D002E46D000E00646706901888D
:101AD0000229A6BF4068103004200068002814BF07
:101AE000056800250098401C00900CB9B81C09E05E
:101AF00030783870B11C70787870B81C0A78027031
:101B00004A784270871C0DB38CB1A86901683960AE
:101B100005F10800E96803683A1D136043685360E3
:101B200007F10C00AA68120A92000EF06EFFA86876
:101B300007F10C03000A03EB80002CB105F1100142
:101B40000A6802604A68426000F10807F06886424D
:101B500018BF0028B9D10CB100993960391D081B94
:101B600001B0F0BD70B4490800240023B1F5B47F82
:101B700002462AD35FF02D0032F8025B641932F876
:101B8000025BE318641932F8025BE318641932F857
:101B9000025B32F8026BE3186419E318A41932F8F7
:101BA000026BE318A41932F8026BE318A41932F897
:101BB000026BE318A419E318401EDDD1A1F5B4713E
:101BC000B1F5B47FA4B29BB2D4D2E9B111F0030055
:101BD00000F0068032F8025B6419E318401EF9D168
:101BE000890811D032F8020B32F8025B2018C318B2
:101BF000401932F8024B32F8025BC3180019C318BF
:101C00004419E318491EEDD1C4EA034070BC704783
:101C1000F0B506000D4618BF002D81B00AD0002196
:101C2000FFF746FF0746002028603846FFF7D8F93F
:101C3000040002D1002001B0F0BD21463046FFF77C
:101C400037FF39462046FFF78DFF28602046FFF713
:101C5000D4F9012001B0F0BD2DE9F0410346086838
:101C60001C68000A60F31F241C60040048D04E6802
:101C700052685B6806EB84010F1F02EB840503EBDF
:101C800084012D1FA1F1040C10F0030100F00F805E
:101C9000D7F800E0D5F80080641EF04528BFC6469E
:101CA000491E3F1F2D1F00294CF804E9F0D1800880
:101CB00026D002EB840106EB840203EB8403103987
:101CC000103A103BD468CD68AC4238BF2C46DC607B
:101CD0008D689468AC4238BF2C469C604D6854684F
:101CE000AC4238BF2C465C600D681468A54228BF22
:101CF0002C46401E103A1039002843F81049E1D113
:101D0000BDE8F0812DE9F0010B6804681B0A63F35C
:101D10001F2404604F68556839682A6840687B68EA
:101D20006C68D7F80880AE68FF68ED68914214BF10
:101D300001220022A34214BF01240024B04514BF95
:101D400001260026AF4282F00105056014BF01277D
:101D5000002784F0010515404B4361436D1A45602F
:101D600008FB03F886F00105254073431540ED1A82
:101D70004919816087F001010E403440224008FB80
:101D800017229A18C260BDE8F001704730B40A68A3
:101D900002604B6843608A69836882618A68120ABC
:101DA00062F31F23836000238268120A25D0CC6867
:101DB000C26854F8235042F823505B1C8568B3EB8B
:101DC000152F1AD254F8235042F823505B1C856813
:101DD000B3EB152F11D254F8235042F823505B1C5B
:101DE0008568B3EB152F08D254F8234042F82340FE
:101DF0005B1C8268B3EB122FD9D30A690369120AFC
:101E000062F31F23036100230269120A25D04C6983
:101E1000426954F8235042F823505B1C0569B3EB28
:101E2000152F1AD254F8235042F823505B1C056931
:101E3000B3EB152F11D254F8235042F823505B1CFA
:101E40000569B3EB152F08D254F8234042F823401C
:101E50005B1C0269B3EB122FD9D330BC704730B48E
:101E600091E83C0080E83C0030BC704710B5044667
:101E700021698847E068A04208BF002010BD00002B
:101E800000B581B060B10178032909D15FF0040287
:101E90008DA10EF0BCFD401E8041C00F01B000BD01
:101EA000002001B000BD000042F21172811A012928
:101EB00081BFC91E0D290F39092900F26B80801AD4
:101EC00033D0401E33D0801E33D0401E34D0401E4D
:101ED00034D0401E34D0401E34D0401E34D0401E7A
:101EE00034D0401E34D0401E34D0401E34D0401E6A
:101EF00034D0401E34D0401E34D0401E34D0801E1A
:101F000034D0401E34D0401E34D0401E34D0401E49
:101F100034D0401E34D0401E34D0401E34D0401E39
:101F200034D0401E34D01CA070471CA070471CA0A9
:101F3000704700BF31A0704732A0704719A07047AA
:101F400019A0704731A0704718A0704731A07047A2
:101F500032A0704736A0704738A0704714A0704771
:101F600038A0704739A070473BA070473FA070472A
:101F700040A0704741A0704743A0704744A07047FD
:101F800045A070470BA0704749A070474AA0704712
:101F90004BA0704700A0704700000000414444007F
:101FA000424E0000475255004C524E004E4C00002D
:101FB000534D00005041440042F21171401A012873
:101FC00081BFC01E0D280F38092801D80120704795
:101FD0000020704730B5044681B0206D58B160656F
:101FE000656D296928468847E868A84208BF00202F
:101FF00000286065F4D101B030BD0000434F4E565B
:102000003244000044454E53450000004C53544DAB
:10201000000000004E4F524D000000004F50544948
:102020004D495A45445F434F4E563244000000002C
:102030005452414E53504F5345000000504F4F4CA7
:102040000000000053504C495400000054494D45D5
:102050005F44454C4159000054494D455F44495344
:10206000545249425554454400000000434F4E43EA
:102070004154000047454D4D00000000555053416C
:102080004D504C4500000000454C54574953450005
:1020900047454E4552494300494E5354414E4345EE
:1020A0004E4F524D414C495A4154494F4E00000049
:1020B000534C49434500000054494C450000000082
:1020C0005245445543450000038404842DE9F04FF4
:1020D00098B02598002800F0CB82BDF9C040DDF80B
:1020E000B4A02B9D249F2C9E049007FB0A6A2A987B
:1020F000BDF9C060CDF814A00419641E26980091A3
:1021000094FBF6F6BDF9BC40179246431696B7EE1F
:10211000000A2A9E22980693444315947E43BDF9F3
:10212000C0407C4314944643BDF9C0402A980B96A6
:10213000241A139404462698269E444312942A9CFB
:1021400044431194BDF9C000BDF9BC4014FB00F03C
:102150000A90239C2998B4FBF0F01090229C2998B7
:10216000B4FBF0F00F90239C2298B4FBF0F0229C7B
:102170000E9074430D942A9C2D1B0C952C9F249932
:102180002C982E9A7F42D8BF0027091A91423DBF52
:1021900024982C9E861B1646059A22991798BA18E1
:1021A0004A4300EB8202219800B900980190F61B87
:1021B00029980C9D012804BF0A98012840F0A980A5
:1021C000249C26980D9BA41B4C43801B41432798BD
:1021D000401B00FB03FC1198069B074422984743D1
:1021E00003EB87077043019E009B9E420B9B02EB13
:1021F0008309239A0CBFDFEDAF0AF0EE400A002AF4
:1022000000F02282B0462E461346CDF808C01D4687
:10221000DDF800E0009B3A468246CDF80490C446C3
:102220002AF003079CED001ADDF80480002E21EE51
:10223000201A61DD3046002F4FF0000940F31F8067
:10224000D2ED004A98ED005AD2ED013A98ED014ADC
:10225000D2ED022A98ED023AD2ED031A98ED032A44
:1022600004EE851A03EE841A103209F1040902EE15
:10227000831AB94501EE821A08F11008E0DBD14556
:1022800080F2348009F10109D2ED002AD8ED001A5C
:10229000121DD14502EEA11A08F1040826DA09F14F
:1022A000010992ED003A98ED002A121DD14503EE86
:1022B000021A08F1040819DA09F10109D2ED002A1D
:1022C000D8ED001A121DD14502EEA11A08F104083A
:1022D0000CDA09F1010992ED002A98ED003A121D7D
:1022E000D14502EE031A08F10408CBDB401E08EBCF
:1022F000840802EB81029ED102988EED001A6D1EB9
:1023000002EB80020EF1040E0CF1040C8AD1009352
:102310009AE12998884204BF0A98012840F0CC80AD
:102320000E98069B009C02902498811B229801FB2A
:1023300000FA26982699A0EB060C2798401B4143EB
:1023400012983F1803EB8700019BA3420B9B02EB03
:10235000830E0CBFDFED570AF0EE400A229B0024EB
:102360000EEB83029645039280F06E81009B029AE9
:10237000002A00F09780019A009502EB840703EB96
:102380008402DDF808B00891CDF81CE01546009AEB
:1023900097ED001A0799002A21EE201A40F3728067
:1023A00026F0030EBEF1000F4FF0000940F3298024
:1023B000DDF88880D0ED001A91ED002A01EB88014C
:1023C00001EE821AD0ED011A91ED002A01EB88018D
:1023D00001EE821AD0ED021A91ED002A01EB88017C
:1023E00001EE821A09F10409D0ED031A91ED002AD9
:1023F0001030F14501EE821A01EB8801DADBCDF8ED
:102400008880B14580F23880DDF888E009F1010963
:10241000D0ED001A91ED002A001DB14501EE821A9F
:1024200001EB8E0126DA09F1010990ED002AD1EDC8
:10243000001A001DB14502EE211A01EB8E0119DAD6
:1024400009F10109D0ED001A91ED002A001DB145F6
:1024500001EE821A01EB8E010CDA09F1010990ED0F
:10246000002AD1ED001A001DB14502EE211A01EB40
:102470008E01CBDBCDF888E0521E01EB8A0100EB28
:102480008C008DD1089985ED001A641C2D1D3F1D0F
:10249000BBF1010B00EB81007FF479AF009D08993F
:1024A000DDF81CE0039A0EF1040E9645BFF42FAF41
:1024B0005DE700BF00000000BDF9BC10DDF85090E2
:1024C0000846CB1B97FBF0F400FB043090FBF1FABD
:1024D00001FB1A0ABDF9C0302A98139C90FBF3F057
:1024E00003FB0040761890FBF3FB761E7F1803FB7E
:1024F0001B0BA6EB0A06A5EB0B057F1E96FBF1F066
:10250000279E229C5D196D1E00FB119997FBF1F12E
:1025100095FBF3FC109D0F9B0995A6EB0C06269DE1
:102520002D1A05FB03F8269D5D4306FB05FE169D4F
:10253000069E4D1904FB09F95D43159C06EB8501C8
:10254000019D009EE41AB5422A9D249E5D4406FB2F
:1025500005AA229D0AFB05F50CBFDFED9E0AF0EEF1
:10256000400A02EB8507299A0025002A6CD00292C6
:10257000099A002A62D0019A02EB8506009ACDF8EA
:102580000CC002EB850A099ACDF820E0CDF81C704A
:10259000DDF80CE096ED001A079FBEF1000F21EE6A
:1025A000201A3BDD002832DD4FEA000C07EB830BDD
:1025B0005F4527D2D1ED002AD7ED001A091D3F1D36
:1025C0005F4502EEA11A1DD291ED003A97ED002A67
:1025D000091D3F1D5F4503EE021A13D2D1ED002AFB
:1025E000D7ED001A091D3F1D5F4502EEA11A09D261
:1025F00091ED002A97ED003A091D3F1D5F4502EE5F
:10260000031AD7D3BCF1010C07EB8407CED1BEF17E
:10261000010E07EB890701EB8801C3D1089F6D1CF0
:10262000361D8AED001A521E01EB87010AF1040AD9
:10263000AED1DDF80CC0DDF820E0079F029A521EF3
:1026400007EB8307029293D10098239900EB810254
:102650002C98BDF8A010009241182C910598BDF857
:10266000A010411804980591401E04907FF486AD97
:1026700018B0BDE8F08F70472DE9F04F81B0824669
:102680002DED028B15460C9CE0080F461A469FED77
:10269000510A52D029463B787D78BE7897F803B02E
:1026A00092ED008A92ED017A17F804CF92ED026A5A
:1026B00092ED035A97F801E097F8028097F803909B
:1026C00092ED044A92ED053A92ED062A92ED071A30
:1026D00001EB830301EB850501EB8606D3ED007A60
:1026E000D5ED006A01EB8B0B07EE880A01EB8C0C31
:1026F000D6ED005ADBED004ADCED003A06EE870A23
:1027000001EB8E0E05EE860A01EB880804EE850AC1
:1027100001EB8909DEED002AD8ED001AD9ED000A97
:1027200003EE840A3F1D02EE830A203201EE820A84
:10273000401E00EE810AAED10D4614F007003ED0D7
:1027400010F0030100F00D8017F8013B92ED001A24
:1027500005EB8306121DD6ED000A491E00EE810A24
:10276000F2D1800800F02B8017F8013B17F8011B0D
:1027700092ED001AD2ED010A05EB830305EB81010E
:1027800093ED002AD1ED001A17F8011B17F8013B51
:1027900002EE010A05EB810101EEA00A05EB8303BD
:1027A000D2ED020A91ED002A92ED031AD3ED001A40
:1027B000103202EE200A401E01EE810AD4D1DAED79
:1027C000000A30EE800A8AED000ABDEC028B01B0EF
:1027D000BDE8F08F000000002DE9F0472DED028BE1
:1027E0008046DDF828C04FEA5C001E4640005FEAE4
:1027F000DC030C46154606EB800E9FED500A53D0C5
:1028000096ED008A96ED017A96ED026A96ED035AEE
:1028100020786178A278E77896ED044A96ED053A3B
:1028200096ED062A96ED071A07F00F093F0905EB0A
:10283000870705EB890AD7ED001ADAED000A02F0E6
:102840000F07120905EB820205EB8707D2ED003A6C
:10285000D7ED002A01F00F02090905EB810105EB14
:102860008207D1ED005AD7ED004A00F00F010009B0
:1028700005EB800005EB8102D0ED007AD2ED006A15
:1028800007EE880A06EE870A05EE860A04EE850A38
:1028900003EE840A241D02EE830A203601EE820A2A
:1028A0005B1E00EE810AABD176452FD214F8010BE6
:1028B000D6ED001AD6ED010A00F00F01000905EB74
:1028C000800005EB810290ED002A92ED001A083697
:1028D00002EE210A764501EE200A17D214F8010B08
:1028E00096ED001A96ED012A00F00F01000905EBA4
:1028F000800005EB8102D0ED001AD2ED000A083607
:1029000001EE810A764500EE820ACFD35FEACC70F1
:1029100009D5217896ED001A090905EB8100D0ED63
:10292000000A00EE810AD8ED001A31EE800A88ED27
:10293000000ABDEC028BBDE8F0870000000000003B
:10294000F0B404460598049E042B04EB800503D0E4
:10295000082B3ED0F0BC7047AC4259D270082ED044
:10296000C3070CD50F783F0952F82730236011F8C0
:10297000017B07F00F0752F82730636008344008E6
:102980001DD00B781B0952F82370276011F8013B0A
:1029900003F00F0352F82370676004F108030C780A
:1029A000240952F824701F60401E11F8014B04F0F6
:1029B0000F0452F824705F6003F10804E1D1F007BE
:1029C000CAD511F8013B1B0952F8230044F8040B47
:1029D000C2E7AC421CD2087852F820002060201DCB
:1029E000A8423FBF4C7852F8243040F8043BA8423C
:1029F0000ED28B7852F8233040F8043BA84207D21D
:102A0000CC7852F82430091D041DAC420360E2D397
:102A1000F0BC70472DE9F04F0546A9B06B691988E5
:102A200000291ABF5868001D04200068002814BF40
:102A3000026800220129C6BF5868103004200068CF
:102A4000002814BFD0F800A04FF0000A0229C6BF2A
:102A5000586800F11C0404242068002814BF06688C
:102A6000002602290ADD5B6813F1180106D0198BD4
:102A7000012903DDD96909B1496800E0002100B1ED
:102A80008068D7687B681B93DAF80C305C68049424
:102A9000DC689B681493FB681A93BF6820976B6A85
:102AA000ADF840302F8D1F97AB6B1F68B3F80480D3
:102AB000EB6A19932B6B1893F368D3F808E0CDF801
:102AC0004CE05B681293AB691E93926993681D9307
:102AD000B269D2F8089019B18A699368179301E036
:102AE00000221792DAF818108A680392E96918B17F
:102AF00081698A68159205E011B18A68159201E032
:102B0000002315931599029120B9002101222491E7
:102B1000239208E041698A682492806941680068CC
:102B200005F0C0FE239018AA286A002812BF229040
:102B3000DFF8281D229113991388481E5B1E19AADD
:102B400003FB0011169112981388411E5B1E03FBB4
:102B500001001C900022B6693168CB114FEA615C1C
:102B6000491401F00F01002003F07F030CF0030C67
:102B70000429834623FA0CF314BF0829F268DAB15A
:102B800069690D88042DA6BF4968283104210968A8
:102B900000291FBF086800288169D1F808B0806942
:102BA00041681B98019100905846B168FFF7C8FE34
:102BB000BBF1000F18BFD946BFB27F42002C73D0C3
:102BC0002246C8F10008049CDDF80CB0029ECDF846
:102BD0009880CDF89C901197219226981A99119A75
:102BE000169B259011984042D8BF0020891A99421F
:102BF0003DBF1A9A1199511A19460A9109900294E7
:102C00001E98BDF84010189A0890079112B21398B8
:102C10001299199B0F92069005911BB21C9A149859
:102C200020990E930D9204900391119B259A1B9865
:102C300017990C930B9201900091279B1D9A59466E
:102C40000020FFF743FA149810B3CDF800A0159DAB
:102C5000249FDDF88C80DDF8889082460098816999
:102C6000C1F808B02B4622460846C8473D44A81B79
:102C70004045A8BF3546BAF1010A0BEB840BEDD1F4
:102C8000DDF800A015952497CDF88C80CDF88890BC
:102C9000DAF81800C168816011981F99081811901E
:102CA0002198401E219098D129B0BDE8F08F0000F6
:102CB0002DE9F04F0446B9B06369198800291ABF9D
:102CC0005868001D04200068002814BF0268002214
:102CD0000129C6BF5868103004200068002814BFBE
:102CE000D0F800904FF000090229C6BF586800F1E3
:102CF0001C0704273868002814BF0668002602292C
:102D00000ADD5B6813F1180106D0198B012903DD78
:102D1000D96909B1496800E0002100B18068D7682D
:102D20007B682393D9F80C506B681093EB6822935F
:102D3000AB682193FB681B93BF682D97636AADF85E
:102D40004C30278D2097A36B1F88B3F804809D68B3
:102D5000A3692C93E36A1F93236B1E93F368D3F844
:102D600004E0CDF868E09B681993E36B2B93636CE8
:102D70002A93A36C1193236DD3F800A05B68299369
:102D8000926993682893B269D2F808B019B18A6938
:102D900093681D9301E000221D92E16918B18169D9
:102DA0008A681C9205E011B18A681C9201E0002338
:102DB0001C931C99029120B90021012216911592B1
:102DC00008E041698A68169280694168006805F0E8
:102DD00069FD15901EAA206A002812BF3090DFF806
:102DE0007C1A3091616D1998138827915B1E411EE2
:102DF0001FAA03FB010018901A991388481E5B1E36
:102E000003FB00112691216C1B9A18981291121A3B
:102E1000BA18209912FA85F0B0FBF1F1491C14910F
:102E20000020B669316800250022CB114FEA615CB1
:102E3000491401F00F0103F07F030CF0030C042987
:102E400023FA0CF314BF0829F268DAB16169B1F80A
:102E500000C0BCF1040FA6BF4968283104210968ED
:102E600000291FBF4868002881698D688069416812
:102E70002398019100902846B168FFF761FD0DB1DC
:102E8000284600E058466369DDF840C01C88D9F840
:102E900018100026042CA6BF5B68283304230DF10C
:102EA000440E1B68002B14BF1D6800257F42AC69CF
:102EB000EB68D4F808B09B68119C5C430CFB04F4ED
:102EC00037940FFA8AF2BEF90040DDF884C03694D8
:102ED0000DF1480E109C0CFB04F43594C8F1000869
:102EE000BEF9004034949146109CCDF8C8805C43F4
:102EF0003394229C002C00F02E81DDF808A038903D
:102F0000259114462F962E962493179714980028EF
:102F10006ADD32981B99179A189B31901798404296
:102F2000D8BF0020891A99423DBF1B9A1799511AA0
:102F3000194609900A912C98BDF84C101E9A1F9BB7
:102F40000890079112B219981A9906900F9205915C
:102F50001BB22498269A2D9904900E930D920391FA
:102F60001098179B319A239902900C930B92019120
:102F700059461D98389B289A00900020FFF7A6F824
:102F8000249850B3CDF808A0109E1C9FDDF8C08097
:102F90008246A9693B46C1F808B032460846C04798
:102FA0001698029907441598791A8142A8694168D0
:102FB000C068A8BF029F0BEB860B00EB8102934514
:102FC00002D3890049428B44BAF1010AE1D1DDF80C
:102FD00008A010961C97CDF8C080A869C1688160D0
:102FE00009F101000FFA80F91498401E14906BD576
:102FF000339800FB09F0800040420BEB0002A86907
:10300000C3689A423CBF476802EB87029342594625
:1030100036D2349EB14533D0466803EB86039A42DC
:1030200080F02E8092ED000A8BED000AC36846689E
:10303000121D03EB8607BA4222D2D2ED000ACBED75
:10304000010AC3684668121D03EB8607BA4217D20D
:1030500092ED000A8BED020AC3684668121D03EB6D
:103060008607BA420CD2D2ED000ACBED030AC36840
:103070004668121D03EB8607BA420BF1100BD1D341
:103080002F9A129B9A18A2EB09022F92119A379B42
:103090004A440FFA82F901EB830BC168426801EBE5
:1030A00082039B450B460FD341688A0052429344EA
:1030B00003EB81018B4524BF93448B4521BF93448F
:1030C0008B4593448B45EFD21298814539D31199A2
:1030D000219A109B279EA9EB01000FFA80F92E98E8
:1030E000401C2E90012125980890079192B21198CA
:1030F0002A99069280B2059089B22998129A049171
:1031000080B2A1B2029003919BB22B98129980B227
:1031100089B2009001912F982499121AA86992B24D
:1031200089B2B04725988168359801EB80022599CE
:103130008A603698201A0028C3BF1198241A24B236
:103140000024179820990818179022992E988842E1
:10315000FFF4DCAE2599A869C2688260C8688860FF
:1031600039B0BDE8F08F00002DE9F04F81B02DEDB2
:10317000028B88B04469208800281ABF6168091D45
:1031800004210968002914BF0A6800220228A6BF8A
:103190006168103104210968002914BF0F680027F5
:1031A0000228C6BF61681C3104210968002914BFC8
:1031B0000B68002302280BDD616811F1180007D0AD
:1031C000088B022804DBC86910B1D0F804A001E024
:1031D0004FF0000AD0684468F86845688168C068A4
:1031E0009E69BF69D6F800E09269BF68414300203C
:1031F0004FEAEE194FEA6E584FEA6E4E0EF00F0E80
:10320000BEF1040F14BFBEF1080FF06809F07F098A
:1032100008F003085E69766829FA08F9D2F8088090
:10322000002907EB850200F0EA800793CDF814A08F
:1032300006950192049107998A690599D2F808B018
:10324000019B00291ABF8A6992680022002840F079
:10325000AB809F4280F0C7800390002A0EBF9FED95
:103260006B0A92ED000A121D042C2046C646DC466D
:10327000DFED660A5DD3A108CD071CD59CED004AA1
:10328000DEED004A9CED013ADEED013A9CED022AAA
:10329000DEED022A9CED031ADEED031A44EE240A49
:1032A00043EE230A42EE220A41EE210A0EF1100EED
:1032B0000CF1100C001F490800F03B80DEED004AC5
:1032C000DEED013ADEED022ADEED031A9CED031A73
:1032D0009CED022A9CED013A9CED004A44EE240A42
:1032E00043EE230A42EE220A41EE210A0EF11005B6
:1032F0000CF1100CD5ED008A9CED008A9CED017A52
:10330000D5ED017A9CED026AD5ED026A9CED035A77
:10331000D5ED035A48EE280A47EE270A083846EE4C
:10332000260A491E45EE250A05F1100E0CF1100C77
:10333000C4D178B310F0030100F00C809CED001AAA
:10334000DEED001A491E41EE210A0EF1040E0CF1C9
:10335000040CF3D180081DD09CED002A9EED001ACC
:10336000DCED011ADEED012A42EE010A41EEA20A6D
:103370009CED022A9EED021ADCED031ADEED032A13
:1033800042EE010A401E41EEA20A0EF1100E0CF1AF
:10339000100CE1D130EE200A87ED000A3F1D9F425C
:1033A000B344FFF45AAF1DE09F421CD29A460390EB
:1033B0001546002D14BF55F8040B00200290B9F1FA
:1033C000040F039A00944346594602A802D1FFF71E
:1033D00003FA01E0FFF750F9029847F8040B57454C
:1033E000B344E6D303980199069A01EB820304994A
:1033F0000193491E08EB840804917FF41CAF08B0C8
:10340000BDEC028B01B0BDE8F08F000000000000B1
:103410002DE9F04F044691B06169088800281ABF71
:103420004868021D04220B4610681988002814BF42
:103430000568002500291DBF58680028B0F800C0A5
:103440004FF0000C0229A6BF586810300420006815
:10345000002814BF016800210026BCF1030FB2460A
:1034600007D11068002826D0466824D0D0F808A0DC
:1034700021E0BCF1020F0DD1106800B146681A8836
:10348000022AC6BF58681C300420006898B1D0F8E2
:1034900000A010E0BCF1010F0DD11A88022AC6BFAE
:1034A000586800F11C0204221068002803D0066846
:1034B00018BFD0F804A0C86889698B684268C168E1
:1034C00092B289B206A805F02DFBA969E8688B685D
:1034D0004268C16892B289B204A805F023FBB169C1
:1034E000F0688B684268C16892B289B202A805F0A0
:1034F00019FBDAF81810DAF80C008B684268C1681A
:1035000092B289B2684605F00DFB94F9215094F906
:1035100020000599039A94ED070AD4ED060A0B9151
:103520000E920D920023BDF810E0BDF812800199B3
:10353000BDF80270BDF800C0079CBDF808A0BDF83A
:103540001860BDF81AB0089102000CBF72464246DE
:10355000012F0CBF99464FF00409BDF80A10BCF1C9
:10356000010F04D1012F04D0CBF1000702E0012F9D
:1035700000D0002700280CBFF446C4463FB2B44533
:103580000C9740F08B80002D0CBF0991CDF824A042
:10359000099F5F4540F0828000280CBFC446F44676
:1035A000002D0CBF57460F46BC4577D1089EDDF86D
:1035B0002CC01094ADF82230ADF82020109ABDF840
:1035C0002230CDF82CC002EB8307099A0E9BDDF860
:1035D00034C0ADF828E04FEA8804CDF83C800028DC
:1035E0000CBFDDF83C80BDF828801FFA88FBDDF8B1
:1035F0002CE0BBF1000F9FED9A1A19D000280CBFE8
:103600004FF0040BA346002DA8F10108DEED001ACF
:1036100093ED002ADE440CBF4FEA810B4FF0040B00
:103620005B441FFA88FBBBF1000F01EE821AE5D163
:1036300020EE811AD6ED001A00EE211A87ED001A4D
:103640003F1D521E92B22B000EBF8B1AAAEB020333
:103650004B43002A4E440CEB8303C0D1BDF82270CB
:10366000099B0B9ABDF828E0DDF83C80CDF834C00A
:10367000DF19ADF8227000B1042402EB040CBDF890
:1036800020400C9A671E06EB8206ADF82070BDF84C
:103690002020002A92D111B0BDE8F08F0BFB06F676
:1036A000002EF8DD16F0030003D0401E44F8043B62
:1036B000FBD1B108EFD023606360A360E3601034F6
:1036C000491EF8D111B0BDE8F08F00002DE9F04F90
:1036D0008BB044692288002A1ABF6068031D042346
:1036E0001968002914BF08680020002914BFD1F808
:1036F00004B04FF0000B022AA6BF6168103104210C
:103700000968002914BF0B680023BBF1000F08D122
:10371000022AC6BF61681C310421096809B1D1F8C9
:1037200000B0DD68C468DBF80C906E68D4F800E087
:10373000D9F80020D5F800A0A168D9F80880D5F8FC
:1037400008C0EF68069701FB0EF59B69E7689B6868
:103750004F430EFB07F70A97D9F80C4008FB04F417
:103760005443002E099408FB02F874D00024A146AB
:103770000296069E002E64D0069F0197CDF80CC0DD
:1037800000260595039D002D51D00095CDF810A081
:1037900007924FF0000A049A002A3FD04FF0000C25
:1037A000089008988569A868DBF8187020443044B0
:1037B00000EB0C05B8684844504400EB0C079FED43
:1037C000280A19B3C80709D5D5ED000A97ED001AE4
:1037D00000EE810A05EB8E0507EB8807480815D037
:1037E000D5ED000A97ED001A05EB8E0507EB88076B
:1037F00000EE810AD5ED000A97ED001A401E00EE9A
:10380000810A05EB8E0507EB8807E9D183ED000AF5
:103810001B1D521E0CF1040CC3D10898009D079A81
:103820006D1E0AEB820A0095B5D1DDF810A0019F4C
:10383000059D7F1E06EB85060197A3D1DDF80CC020
:10384000059D099E0A9F09EB8609029E761E04EBE0
:10385000870402968DD10BB0BDE8F08F7726000863
:103860000000000070B401464FF001020B681B0A13
:103870001ED04C6804EB830118460D1F10F00301A5
:1038800000F0068055F804695B1E7243491EF9D1A9
:1038900080080DD004EB83011039CB688C684D682B
:1038A00051F8106963436B4373435A43401EF4D18C
:1038B00070BC10467047000070B58C68806804EBDF
:1038C00082010D1F00EB82010E1FA542C0F00A808D
:1038D00095ED000A0DF0D6FE86ED000A2D1F361F6D
:1038E000A542F5D270BD0000F0B581B042691188E3
:1038F00000291ABF5068001D04204FF00105006820
:10390000002814BF036800230229A6BF50681030A6
:1039100004200068002819BF006800F11804002185
:1039200001F1180403F108010A68120A1ED04E685A
:1039300006EB820110460F1F10F0030106D0521E45
:1039400057F804C9491E0CFB05F5F8D180080DD0C5
:1039500006EB82011039CA688E684F68724351F8CD
:1039600010697A4372435543401EF4D198698668C2
:10397000216806EB8500071F886800EB8502141F8D
:10398000B74209D397ED000A0DF07CFE84ED000AE2
:103990003F1F241FB742F5D201B0F0BD70B58C684F
:1039A000806804EB82010D1F00EB82010E1FA5420F
:1039B000C0F00A8095ED000A0DF096FE86ED000A33
:1039C0002D1F361FA542F5D270BD0000F0B581B0A5
:1039D0004269118800291ABF5068001D04204FF069
:1039E00001050068002814BF036800230229A6BF50
:1039F0005068103004200068002819BF006800F1EA
:103A00001804002101F1180403F108010A68120AE0
:103A10001ED04E6806EB820110460F1F10F0030106
:103A200006D0521E57F804C9491E0CFB05F5F8D103
:103A300080080DD006EB82011039CA688E684F6885
:103A4000724351F810697A4372435543401EF4D1D2
:103A500098698668216806EB8500071F886800EB77
:103A60008502141FB74209D397ED000A0DF03CFE02
:103A700084ED000A3F1F241FB742F5D201B0F0BD0C
:103A800070B58C68806804EB82010D1F00EB820129
:103A90000E1FA542C0F00A8095ED000A0DF04EFE03
:103AA00086ED000A2D1F361FA542F5D270BD00001D
:103AB000F0B581B04269118800291ABF5068001D15
:103AC00004204FF001050068002814BF036800239C
:103AD0000229A6BF5068103004200068002819BFD2
:103AE000006800F11804002101F1180403F1080135
:103AF0000A68120A1ED04E6806EB820110460F1F9C
:103B000010F0030106D0521E57F804C9491E0CFBE1
:103B100005F5F8D180080DD006EB82011039CA688E
:103B20008E684F68724351F810697A437243554367
:103B3000401EF4D198698668216806EB8500071F4E
:103B4000886800EB8502141FB74209D397ED000A7D
:103B50000DF0F4FD84ED000A3F1F241FB742F5D29B
:103B600001B0F0BD70B58C68806804EB82010D1F58
:103B700000EB82010E1FA542C0F00A8095ED000AFD
:103B80000CF05CFF86ED000A2D1F361FA542F5D212
:103B900070BD0000F0B581B04269118800291ABFDC
:103BA0005068001D04204FF001050068002814BF74
:103BB000036800230229A6BF506810300420006863
:103BC000002819BF006800F11804002101F1180451
:103BD00003F108010A68120A1ED04E6806EB820142
:103BE00010460F1F10F0030106D0521E57F804C9EB
:103BF000491E0CFB05F5F8D180080DD006EB8201BB
:103C00001039CA688E684F68724351F810697A4358
:103C100072435543401EF4D198698668216806EBCB
:103C20008500071F886800EB8502141FB74209D37F
:103C300097ED000A0CF002FF84ED000A3F1F241FDD
:103C4000B742F5D201B0F0BD70B58C68806804EB66
:103C500082010D1F00EB82010E1FA542C0F00A80F9
:103C600095ED000A0CF050FF86ED000A2D1F361F5F
:103C7000A542F5D270BD0000F0B581B0426911884F
:103C800000291ABF5068001D04204FF0010500688C
:103C9000002814BF036800230229A6BF5068103013
:103CA00004200068002819BF006800F118040021F2
:103CB00001F1180403F108010A68120A1ED04E68C7
:103CC00006EB820110460F1F10F0030106D0521EB2
:103CD00057F804C9491E0CFB05F5F8D180080DD032
:103CE00006EB82011039CA688E684F68724351F83A
:103CF00010697A4372435543401EF4D1986986682F
:103D0000216806EB8500071F886800EB8502141FF9
:103D1000B74209D397ED000A0CF0F6FE84ED000AD5
:103D20003F1F241FB742F5D201B0F0BD70B58C68BB
:103D3000806804EB82010D1F00EB82010E1FA5427B
:103D4000C0F00A8095ED000A0DF02AFD86ED000A0C
:103D50002D1F361FA542F5D270BD0000F0B581B011
:103D60004269118800291ABF5068001D04204FF0D5
:103D700001050068002814BF036800230229A6BFBC
:103D80005068103004200068002819BF006800F156
:103D90001804002101F1180403F108010A68120A4D
:103DA0001ED04E6806EB820110460F1F10F0030173
:103DB00006D0521E57F804C9491E0CFB05F5F8D170
:103DC00080080DD006EB82011039CA688E684F68F2
:103DD000724351F810697A4372435543401EF4D13F
:103DE00098698668216806EB8500071F886800EBE4
:103DF0008502141FB74209D397ED000A0DF0D0FCDD
:103E000084ED000A3F1F241FB742F5D201B0F0BD78
:103E100070B58C68806804EB82010D1F00EB820195
:103E20000E1FA542C0F00A8095ED000A0CF082FF3B
:103E300086ED000A2D1F361FA542F5D270BD000089
:103E4000F0B581B04269118800291ABF5068001D81
:103E500004204FF001050068002814BF0368002308
:103E60000229A6BF5068103004200068002819BF3E
:103E7000006800F11804002101F1180403F10801A1
:103E80000A68120A1ED04E6806EB820110460F1F08
:103E900010F0030106D0521E57F804C9491E0CFB4E
:103EA00005F5F8D180080DD006EB82011039CA68FB
:103EB0008E684F68724351F810697A4372435543D4
:103EC000401EF4D198698668216806EB8500071FBB
:103ED000886800EB8502141FB74209D397ED000AEA
:103EE0000CF028FF84ED000A3F1F241FB742F5D2D3
:103EF00001B0F0BD70B58C68806804EB82010D1FC5
:103F000000EB82010E1FA542C0F00A8095ED000A69
:103F10000DF084FC86ED000A2D1F361FA542F5D258
:103F200070BD0000F0B581B04269118800291ABF48
:103F30005068001D04204FF001050068002814BFE0
:103F4000036800230229A6BF5068103004200068CF
:103F5000002819BF006800F11804002101F11804BD
:103F600003F108010A68120A1ED04E6806EB8201AE
:103F700010460F1F10F0030106D0521E57F804C957
:103F8000491E0CFB05F5F8D180080DD006EB820127
:103F90001039CA688E684F68724351F810697A43C5
:103FA00072435543401EF4D198698668216806EB38
:103FB0008500071F886800EB8502141FB74209D3EC
:103FC00097ED000A0DF02AFC84ED000A3F1F241F24
:103FD000B742F5D201B0F0BD70B58C68806804EBD3
:103FE00082010D1F00EB82010E1FA542C0F00A8066
:103FF00095ED000A0CF0E6FE86ED000A2D1F361F37
:10400000A542F5D270BD0000F0B581B042691188BB
:1040100000291ABF5068001D04204FF001050068F8
:10402000002814BF036800230229A6BF506810307F
:1040300004200068002819BF006800F1180400215E
:1040400001F1180403F108010A68120A1ED04E6833
:1040500006EB820110460F1F10F0030106D0521E1E
:1040600057F804C9491E0CFB05F5F8D180080DD09E
:1040700006EB82011039CA688E684F68724351F8A6
:1040800010697A4372435543401EF4D1986986689B
:10409000216806EB8500071F886800EB8502141F66
:1040A000B74209D397ED000A0CF08CFE84ED000AAC
:1040B0003F1F241FB742F5D201B0F0BD70B58C6828
:1040C000806804EB82010D1F00EB82010E1FA542E8
:1040D000C0F00A8095ED000A0DF042FC86ED000A62
:1040E0002D1F361FA542F5D270BD0000F0B581B07E
:1040F0004269118800291ABF5068001D04204FF042
:1041000001050068002814BF036800230229A6BF28
:104110005068103004200068002819BF006800F1C2
:104120001804002101F1180403F108010A68120AB9
:104130001ED04E6806EB820110460F1F10F00301DF
:1041400006D0521E57F804C9491E0CFB05F5F8D1DC
:1041500080080DD006EB82011039CA688E684F685E
:10416000724351F810697A4372435543401EF4D1AB
:1041700098698668216806EB8500071F886800EB50
:104180008502141FB74209D397ED000A0DF0E8FB32
:1041900084ED000A3F1F241FB742F5D201B0F0BDE5
:1041A00070B50C468068A16801EB820300EB8202C7
:1041B0001D1F161F8D420ED395ED000AFCF768F8FF
:1041C000F7EE000AC0EE800AC6ED000A2D1FA068B7
:1041D000361F8542F0D270BDF0B581B042691188BA
:1041E00000291ABF5068001D04204FF00105006827
:1041F000002814BF036800230229A6BF50681030AE
:1042000004200068002819BF006800F1180400218C
:1042100001F1180403F108010A68120A1ED04E6861
:1042200006EB820110460F1F10F0030106D0521E4C
:1042300057F804C9491E0CFB05F5F8D180080DD0CC
:1042400006EB82011039CA688E684F68724351F8D4
:1042500010697A4372435543401EF4D19E69B06899
:10426000226800EB85010F1F916801EB85031C1F7D
:1042700087420ED397ED000AFCF70AF8F7EE000A22
:10428000C0EE800AC4ED000A3F1FB068241F8742B9
:10429000F0D201B0F0BD000070B58C68806804EB0E
:1042A00082010D1F00EB82010E1FA542C0F00A80A3
:1042B00095ED000A0DF018F986ED000A2D1F361F46
:1042C000A542F5D270BD0000F0B581B042691188F9
:1042D00000291ABF5068001D04204FF00105006836
:1042E000002814BF036800230229A6BF50681030BD
:1042F00004200068002819BF006800F1180400219C
:1043000001F1180403F108010A68120A1ED04E6870
:1043100006EB820110460F1F10F0030106D0521E5B
:1043200057F804C9491E0CFB05F5F8D180080DD0DB
:1043300006EB82011039CA688E684F68724351F8E3
:1043400010697A4372435543401EF4D198698668D8
:10435000216806EB8500071F886800EB8502141FA3
:10436000B74209D397ED000A0DF0BEF884ED000ABC
:104370003F1F241FB742F5D201B0F0BD70B58C6865
:10438000806804EB82010D1F00EB82010E1FA54225
:10439000C0F00A8095ED000A0DF0B8FB86ED000A2A
:1043A0002D1F361FA542F5D270BD0000F0B581B0BB
:1043B0004269118800291ABF5068001D04204FF07F
:1043C00001050068002814BF036800230229A6BF66
:1043D0005068103004200068002819BF006800F100
:1043E0001804002101F1180403F108010A68120AF7
:1043F0001ED04E6806EB820110460F1F10F003011D
:1044000006D0521E57F804C9491E0CFB05F5F8D119
:1044100080080DD006EB82011039CA688E684F689B
:10442000724351F810697A4372435543401EF4D1E8
:1044300098698668216806EB8500071F886800EB8D
:104440008502141FB74209D397ED000A0DF05EFBF9
:1044500084ED000A3F1F241FB742F5D201B0F0BD22
:1044600070B58C68806804EB82010D1F00EB82013F
:104470000E1FA542C0F00A8095ED000A0DF07EF8EF
:1044800086ED000A2D1F361FA542F5D270BD000033
:10449000F0B581B04269118800291ABF5068001D2B
:1044A00004204FF001050068002814BF03680023B2
:1044B0000229A6BF5068103004200068002819BFE8
:1044C000006800F11804002101F1180403F108014B
:1044D0000A68120A1ED04E6806EB820110460F1FB2
:1044E00010F0030106D0521E57F804C9491E0CFBF8
:1044F00005F5F8D180080DD006EB82011039CA68A5
:104500008E684F68724351F810697A43724355437D
:10451000401EF4D198698668216806EB8500071F64
:10452000886800EB8502141FB74209D397ED000A93
:104530000DF024F884ED000A3F1F241FB742F5D286
:1045400001B0F0BD8968806801EB820300EB820254
:104550001B1F101F8B4207D353F804C92CF00042D5
:104560008B4240F80429F7D270470000F0B442694A
:10457000118800291ABF5068001D04204FF0010562
:104580000068002814BF036800230229A6BF5068F2
:10459000103004200068002819BF006800F11804DA
:1045A000002101F1180403F108010A68120A1ED063
:1045B0004E6806EB820110460F1F10F0030106D073
:1045C000521E57F804C9491E0CFB05F5F8D18008A6
:1045D0000DD006EB82011039CA688E684F687243AD
:1045E00051F810697A4372435543401EF4D19869DB
:1045F00022688068936800EB850103EB8504091F3E
:10460000221F8142C0F0088051F8043923F0004392
:10461000814242F80439F7D2F0BC704770B58C681B
:10462000806804EB82010D1F00EB82010E1FA54282
:10463000C0F00A8095ED000A0CF038FB86ED000A08
:104640002D1F361FA542F5D270BD0000F0B581B018
:104650004269118800291ABF5068001D04204FF0DC
:1046600001050068002814BF036800230229A6BFC3
:104670005068103004200068002819BF006800F15D
:104680001804002101F1180403F108010A68120A54
:104690001ED04E6806EB820110460F1F10F003017A
:1046A00006D0521E57F804C9491E0CFB05F5F8D177
:1046B00080080DD006EB82011039CA688E684F68F9
:1046C000724351F810697A4372435543401EF4D146
:1046D00098698668216806EB8500071F886800EBEB
:1046E0008502141FB74209D397ED000A0CF0DEFAD9
:1046F00084ED000A3F1F241FB742F5D201B0F0BD80
:1047000070B58C68806804EB82010D1F00EB82019C
:104710000E1FA542C0F00A8095ED000A0CF056FD70
:1047200086ED000A2D1F361FA542F5D270BD000090
:10473000F0B581B04269118800291ABF5068001D88
:1047400004204FF001050068002814BF036800230F
:104750000229A6BF5068103004200068002819BF45
:10476000006800F11804002101F1180403F10801A8
:104770000A68120A1ED04E6806EB820110460F1F0F
:1047800010F0030106D0521E57F804C9491E0CFB55
:1047900005F5F8D180080DD006EB82011039CA6802
:1047A0008E684F68724351F810697A4372435543DB
:1047B000401EF4D198698668216806EB8500071FC2
:1047C000886800EB8502141FB74209D397ED000AF1
:1047D0000CF0FCFC84ED000A3F1F241FB742F5D209
:1047E00001B0F0BD70B58C68806804EB82010D1FCC
:1047F00000EB82010E1FA542C0F00A8095ED000A71
:104800000CF042FE86ED000A2D1F361FA542F5D2A0
:1048100070BD0000F0B581B04269118800291ABF4F
:104820005068001D04204FF001050068002814BFE7
:10483000036800230229A6BF5068103004200068D6
:10484000002819BF006800F11804002101F11804C4
:1048500003F108010A68120A1ED04E6806EB8201B5
:1048600010460F1F10F0030106D0521E57F804C95E
:10487000491E0CFB05F5F8D180080DD006EB82012E
:104880001039CA688E684F68724351F810697A43CC
:1048900072435543401EF4D198698668216806EB3F
:1048A0008500071F886800EB8502141FB74209D3F3
:1048B00097ED000A0CF0E8FD84ED000A3F1F241F6D
:1048C000B742F5D201B0F0BD8968806801EB820380
:1048D00000EB82021B1F121F8B422BD3BFEE000A7C
:1048E000D3ED000A181F60EE800A8842C2ED000A6C
:1048F00020D390ED001A131F001F21EE001A8842EA
:1049000083ED001A16D3D0ED000AA2F10803001FB0
:1049100060EE800A8842C3ED000A0BD390ED001AC6
:10492000A2F10C0361EE000AC3ED000A031F103A66
:104930008B42D5D270470000F0B44269118800293B
:104940001ABF5068001D04204FF0010500680028C0
:1049500014BF036800230229A6BF5068103004204A
:104960000068002819BF006800F11804002101F157
:10497000180403F108010A68120A1ED04E6806EBFB
:10498000820110460F1F10F0030106D0521E57F887
:1049900004C9491E0CFB05F5F8D180080DD006EBC3
:1049A00082011039CA688E684F68724351F81069E5
:1049B0007A4372435543401EF4D198692268806857
:1049C000936800EB850103EB8504091F221F8142D8
:1049D000C0F02C80BFEE000AD1ED000A091F60EE86
:1049E000800A8142C2ED000A20D391ED001A131F04
:1049F000091F21EE001A814283ED001A16D3D1ED72
:104A0000000AA2F10803091F60EE800A8142C3ED8B
:104A1000000A0BD391ED001AA2F10C03091F103A02
:104A200061EE000A8142C3ED000AD5D2F0BC7047A6
:104A30008968806801EB820300EB82021B1F121F52
:104A40008B4231D393ED000AF7EE000A181F80EE77
:104A5000800A884282ED000A26D3D0ED000AB7EE24
:104A6000000A131F001F80EE200A884283ED000A0F
:104A70001AD390ED000AF7EE000AA2F10803001F16
:104A800080EE800A884283ED000A0DD3D0ED000A43
:104A9000B7EE000AA2F10C0380EE200A83ED000AB3
:104AA000031F103A8B42CDD270470000F0B4426928
:104AB000118800291ABF5068001D04204FF001051D
:104AC0000068002814BF036800230229A6BF5068AD
:104AD000103004200068002819BF006800F1180495
:104AE000002101F1180403F108010A68120A1ED01E
:104AF0004E6806EB820110460F1F10F0030106D02E
:104B0000521E57F804C9491E0CFB05F5F8D1800860
:104B10000DD006EB82011039CA688E684F68724367
:104B200051F810697A4372435543401EF4D1986995
:104B300022688068936800EB850103EB8504091FF8
:104B4000221F8142C0F0328091ED000AF7EE000A88
:104B5000091F80EE800A814282ED000A26D3D1ED42
:104B6000000AB7EE000A131F091F80EE200A8142D7
:104B700083ED000A1AD391ED000AF7EE000AA2F1C4
:104B80000803091F80EE800A814283ED000A0DD3DD
:104B9000D1ED000AB7EE000AA2F10C03091F103A8A
:104BA00080EE200A814283ED000ACDD2F0BC70472E
:104BB00070B58C68806804EB82010D1F00EB8201E8
:104BC0000E1FA542C0F00A8095ED000A0CF05AFEB7
:104BD00086ED000A2D1F361FA542F5D270BD0000DC
:104BE000F0B581B04269118800291ABF5068001DD4
:104BF00004204FF001050068002814BF036800235B
:104C00000229A6BF5068103004200068002819BF90
:104C1000006800F11804002101F1180403F10801F3
:104C20000A68120A1ED04E6806EB820110460F1F5A
:104C300010F0030106D0521E57F804C9491E0CFBA0
:104C400005F5F8D180080DD006EB82011039CA684D
:104C50008E684F68724351F810697A437243554326
:104C6000401EF4D198698668216806EB8500071F0D
:104C7000886800EB8502141FB74209D397ED000A3C
:104C80000CF000FE84ED000A3F1F241FB742F5D24E
:104C900001B0F0BD70B58C68806804EB82010D1F17
:104CA00000EB82010E1FA542C0F0148095ED000AB2
:104CB000B1EE400A0CF0E6FDF7EE000A70EE200AB5
:104CC000B7EE000A80EE200A86ED000A2D1F361F7F
:104CD000A542EBD270BD0000F0B581B042691188E9
:104CE00000291ABF5068001D04204FF0010500681C
:104CF000002814BF036800230229A6BF50681030A3
:104D000004200068002819BF006800F11804002181
:104D100001F1180403F108010A68120A1ED04E6856
:104D200006EB820110460F1F10F0030106D0521E41
:104D300057F804C9491E0CFB05F5F8D180080DD0C1
:104D400006EB82011039CA688E684F68724351F8C9
:104D500010697A4372435543401EF4D198698668BE
:104D6000216806EB8500071F886800EB8502141F89
:104D7000B74213D397ED000AB1EE400A0CF082FD62
:104D8000F7EE000A70EE200AB7EE000A80EE200A65
:104D900084ED000A3F1F241FB742EBD201B0F0BDE3
:104DA0008968806801EB820300EB82021B1F101FE1
:104DB0008B4214D34FF0FF3293ED000AB5EE400A58
:104DC000F1EE10FACCBF9FED390A00EE102AB8EED2
:104DD000C00A80ED000A1B1F001F8B42ECD27047F7
:104DE000F0B44269118800291ABF5068001D0420E0
:104DF0004FF001050068002814BF03680023012953
:104E0000C6BF5068103004200068002819BF006831
:104E100000F11804002101F1180403F108010A68E7
:104E2000120A1ED04E6806EB820110460F1F10F0CA
:104E3000030106D0521E57F804C9491E0CFB05F5A4
:104E4000F8D180080DD006EB82011039CA688E684F
:104E50004F68724351F810697A4372435543401EBC
:104E6000F4D1986922688068936800EB850103EBB0
:104E70008504091F221F8142C0F015804FF0FF33C7
:104E800091ED000AB5EE400AF1EE10FACCBF9FEDAD
:104E9000070A00EE103AB8EEC00A82ED000A091FB8
:104EA000121F8142ECD2F0BC7047000001000000EC
:104EB00070B50C468068A16801EB820300EB8202AA
:104EC0001D1F161F8D420AD395ED000AFBF7E0F96E
:104ED00086ED000A2D1FA068361F8542F4D270BDF2
:104EE000F0B581B04269118800291ABF5068001DD1
:104EF00004204FF001050068002814BF0368002358
:104F00000229A6BF5068103004200068002819BF8D
:104F1000006800F11804002101F1180403F10801F0
:104F20000A68120A1ED04E6806EB820110460F1F57
:104F300010F0030106D0521E57F804C9491E0CFB9D
:104F400005F5F8D180080DD006EB82011039CA684A
:104F50008E684F68724351F810697A437243554323
:104F6000401EF4D19E69B068226800EB85010F1FD6
:104F7000916801EB85031C1F87420AD397ED000A55
:104F8000FBF786F984ED000A3F1FB068241F8742B3
:104F9000F4D201B0F0BD000070B58C68806804EBFD
:104FA00082010D1F00EB82010E1FA542C0F0108090
:104FB00095ED000A0CF066FCF7EE000A30EE200AD0
:104FC0000CF0CEFC86ED000A2D1F361FA542EFD255
:104FD00070BD0000F0B581B04269118800291ABF88
:104FE0005068001D04204FF001050068002814BF20
:104FF000036800230229A6BF50681030042000680F
:10500000002819BF006800F11804002101F11804FC
:1050100003F108010A68120A1ED04E6806EB8201ED
:1050200010460F1F10F0030106D0521E57F804C996
:10503000491E0CFB05F5F8D180080DD006EB820166
:105040001039CA688E684F68724351F810697A4304
:1050500072435543401EF4D198698668216806EB77
:105060008500071F886800EB8502141FB7420FD325
:1050700097ED000A0CF006FCF7EE000A30EE200A6D
:105080000CF06EFC84ED000A3F1F241FB742EFD2E4
:1050900001B0F0BD8968806801EB820300EB8202F9
:1050A0001B1F101F8B420FD393ED000AF0EEC00AB6
:1050B000B7EE001A70EE810A80EE200A80ED000A39
:1050C0001B1F001F8B42EFD270470000F0B44269F3
:1050D000118800291ABF5068001D04204FF00105F7
:1050E0000068002814BF036800230229A6BF506887
:1050F000103004200068002819BF006800F118046F
:10510000002101F1180403F108010A68120A1ED0F7
:105110004E6806EB820110460F1F10F0030106D007
:10512000521E57F804C9491E0CFB05F5F8D180083A
:105130000DD006EB82011039CA688E684F68724341
:1051400051F810697A4372435543401EF4D198696F
:1051500022688068936800EB850103EB8504091FD2
:10516000221F8142C0F0108091ED000AF0EEC00ACB
:10517000B7EE001A70EE810A80EE200A82ED000A76
:10518000091F121F8142EFD2F0BC704770B58C68C6
:10519000806804EB82010D1F00EB82010E1FA54207
:1051A000C0F00A8095ED000A0CF016FA86ED000AB0
:1051B0002D1F361FA542F5D270BD0000F0B581B09D
:1051C0004269118800291ABF5068001D04204FF061
:1051D00001050068002814BF036800230229A6BF48
:1051E0005068103004200068002819BF006800F1E2
:1051F0001804002101F1180403F108010A68120AD9
:105200001ED04E6806EB820110460F1F10F00301FE
:1052100006D0521E57F804C9491E0CFB05F5F8D1FB
:1052200080080DD006EB82011039CA688E684F687D
:10523000724351F810697A4372435543401EF4D1CA
:1052400098698668216806EB8500071F886800EB6F
:105250008502141FB74209D397ED000A0CF0BCF980
:1052600084ED000A3F1F241FB742F5D201B0F0BD04
:105270008968806801EB820300EB82021B1F101F0C
:105280008B420ED393ED000AB5EE400AF1EE10FA10
:1052900048BF9FED7B0A80ED000A1B1F001F8B4259
:1052A000F0D270472DE9F0412DED028B8F688668B2
:1052B00097ED008A1446022CDFED718A3DD3611E02
:1052C0003A1D11F003000CD092ED000AB4EE480A2A
:1052D000F1EE10FA58BFB0EE408A401E02F104020F
:1052E000F2D1890800F02B8092ED000AB4EE480A52
:1052F000F1EE10FA58BFB0EE408A92ED010AB4EE1A
:10530000480AF1EE10FA58BFB0EE408A92ED020A58
:10531000B4EE480AF1EE10FA58BFB0EE408A92EDB2
:10532000030AB4EE480AF1EE10FA58BFB0EE408A14
:10533000491E02F11002D7D101E0002C40D0B04646
:105340004FEA040597ED000A30EE480A0CF09AFA8D
:105350003F1D88ED000A6D1E78EE808A08F1040872
:10536000F0D1B7EE000A14F0030080EE280A09D04D
:10537000D6ED000A60EE800AC6ED000A401E06F176
:105380000406F5D1A4081BD0D6ED000A60EE800A11
:10539000C6ED000A641E96ED011AD6ED020A21EE52
:1053A000001A86ED011A60EE800A96ED031AC6ED2A
:1053B000020A21EE001A86ED031A06F11006E3D167
:1053C000BDEC028BBDE8F0812DE9F0470D460446A7
:1053D000089FA868099EBF007F4200EB8201A06879
:1053E00001EB070AB600764200EB8201EA689245BB
:1053F00001EB06090FD39846C5F808A0C4F8089039
:105400000023424629462046FFF74CFFE868BA448D
:105410008245B144F0D2E968A960E068A060BDE8C7
:10542000F08700008968806801EB820300EB82024C
:105430001B1F101F8B4221D3B7EE000ADFEDB80A05
:10544000D3ED001A9FEDB72AB6EE001A01EE821ACC
:10545000B4EE601AF1EE10FA08DAB5EE401AF1EE89
:1054600010FA05D59FED061A02E000BFB0EE401A13
:1054700080ED001A1B1F001F8B42E1D27047000015
:10548000000000008968806893ED000AD3ED010AEE
:1054900001EB820300EB82021B1F101F8B4215D30E
:1054A00093ED001AB4EE410AF1EE10FA58BFB0EED7
:1054B000401AB4EE601AF1EE10FA58BFB0EE601A5E
:1054C00080ED001A1B1F001F8B42E9D270470000BD
:1054D0002DE9F04152685568D4688E68D0F808808C
:1054E0006C43A10040460BF08DFA0022002C33469D
:1054F000B7EE000A00F05B8002F1010C05EB020E32
:10550000F445D3ED000A49D2691E11F0030006EB01
:105510008C070FD097ED001AF4EE410AF1EE10FA65
:1055200044BFF0EE410A6246401E0CF1010C07F147
:105530000407EFD1890831D097ED001AF4EE410A43
:10554000F1EE10FA44BFF0EE410A624697ED011AFF
:10555000F4EE410A0CF10100F1EE10FA44BFF0EE56
:10556000410A024697ED021A401CF4EE410AF1EEA0
:1055700010FA44BFF0EE410A024697ED031A401CB0
:10558000F4EE410AF1EE10FA44BFF0EE410A024691
:10559000491E00F1010C07F11007CDD108EB820084
:1055A0007246A24280ED000A03EB8503A4D3BDE856
:1055B000F0810000806893ED000AD3ED010A93EDBD
:1055C000021A8968031F03EB8200B5EE401A0B1F15
:1055D000F1EE10FA03EB82022AD5F5EE400AF1EE65
:1055E00010FA13D08A4210D392ED001AB4EE401A8A
:1055F000F1EE10FA44BF31EE401A21EE201A80ED90
:10560000001A121F001F8A42EED270478A42FCD352
:10561000D2ED000AF4EE400AF1EE10FA48BFDFEDD9
:10562000A70AC0ED000A121F001F8A42F0D270477D
:105630008A42EAD3D2ED001AF4EE411AF1EE10FAE2
:105640000AD5F4EE401AF1EE10FA07D571EEC01A41
:1056500061EEA01A02E000BFF0EE411AC0ED001AA0
:10566000121F001F8A42E5D27047000089688068D7
:1056700093ED000A01EB820300EB82021B1F101F57
:105680008B420ED3D3ED000AF4EE400AF1EE10FA8D
:1056900048BFDFED8A0AC0ED000A1B1F001F8B42C6
:1056A000F0D2704770B52DED048B8C68806893ED57
:1056B000008A04EB82010D1F00EB82010E1FA54240
:1056C000C0F02A80D5ED008AF5EE408AF1EE10FA9E
:1056D0004CBF9FED7A9AB0EE689AB0EE680A0CF073
:1056E000D1F8FFEE000A30EE200A20EE080AB5EEEF
:1056F000400AF1EE10FA09DCB0EE680A0CF0C2F8CC
:10570000FFEE000A30EE200A00EE089A86ED009ABD
:105710002D1F361FA542D5D2BDEC048B70BD0000F5
:105720000100803FCDCC4C3E70B52DED048B8C68D4
:10573000806893ED008AD3ED018A04EB82010D1F8E
:1057400000EB82010E1FA542C0F02C8095ED009A5F
:10575000B5EE409AF1EE10FA4CBFDFED589AF0EE3C
:10576000499AB0EE490A0CF08DF8FFEE000A30EECF
:10577000200A20EE080AB5EE400AF1EE10FA09DC24
:10578000B0EE490A0CF07EF8FFEE000A30EE200A77
:1057900040EE089A28EEA90A86ED000A2D1F361F52
:1057A000A542D3D2BDEC048B70BD0000896880682F
:1057B00003EB820301EB820C00EB82021B1FACF1B6
:1057C000040C101F8C4520D39CED000AB5EE400A56
:1057D000F1EE10FA4CBFDFED390AF0EE400A1A463E
:1057E000B1EE400A131FB5EE400AF1EE10FA48BFC1
:1057F0009FED320A92ED001A41EE400AC0ED000A18
:10580000ACF1040C001F8C45DED2704770B5044625
:105810006269118800291ABF5068001D04200068C1
:10582000002814BF056800250229A6BF5068103063
:1058300004200068002819BF006800F11806002144
:1058400001F11806A069F8B905F10800FEF70AF899
:10585000A969336889689C6801EB800204EB8000C9
:10586000121F001F8A4228D392ED000AB5EE400AAB
:10587000F1EE10FA48BF9FED110A80ED000A121FE9
:10588000001F8A42F0D270BD4068012805F108006F
:1058900009D1FDF7E7FF0246A0698368A96930686E
:1058A000BDE87040E2E6FDF7DDFFA1698B68A969FC
:1058B00002463068BDE870407CE670BD0000000024
:1058C000F0B502464FF001065369198800291ABF46
:1058D0005868001D04200068002814BF04680024D4
:1058E0000229A6BF5868103004200068002819BF9C
:1058F000006800F11805002101F1180504F1080104
:105900000B681B0A1FD04F6807EB83011846A1F1F3
:10591000040C10F0030106D05B1E5CF804E9491E7C
:105920000EFB06F6F8D180080DD007EB8301103985
:10593000CB688F687B434F687B4351F810797B437A
:105940005E43401EF4D190698168A0692A6880682E
:10595000936891ED000A00EB860103EB8604091FB2
:10596000221F8142C0F00F80D1ED000AF4EE400A00
:10597000F1EE10FA48BFDFEDC20AC2ED000A091FBE
:10598000121F8142F0D2F0BD70B5044662691188E1
:1059900000291ABF5068001D04200068002814BFA9
:1059A000056800250229A6BF506810300420006851
:1059B000002819BF006800F11806002101F118063F
:1059C00005F10800FDF74EFF0246A0698368A9694A
:1059D0003068BDE8704065E670B5044662691188BC
:1059E00000291ABF5068001D04200068002814BF59
:1059F000056800250229A6BF506810300420006801
:105A0000002819BF006800F11806002101F11806EE
:105A100005F10800FDF726FF0246A0698368A96921
:105A20003068BDE870407FE62DE9F04F83B04269F1
:105A3000108800281ABF5168091D0421096800292F
:105A400019BF096801F11805002303F118050128A1
:105A5000C6BF5168103104210968002919BF0968BF
:105A600001F11806002303F118060228C6BF50688A
:105A70001C3004200068002814BF04680024A069BA
:105A800087682CB14168006802F00CFF804601E095
:105A90004FF0010828684168006802F003FF0146E2
:105AA000286832688068D2F80890014404F108033D
:105AB0008842009341D202970191074629688F607E
:105AC0004FF001023468C4F80890009B1868000A7F
:105AD0002AD0D3F804E00EEB80038446A3F1040A35
