:020000040800F2
:1000000000020020EDA90108550802086D08020849
:100010000D0902080D0A0208210B02080000000069
:10002000000000000000000000000000012602089F
:10003000190C0208000000003D0C0208C52502084A
:1000400015AA010815AA010815AA010815AA010890
:1000500015AA010815AA010815AA010815AA010880
:1000600015AA010815AA010815AA010815AA010870
:1000700015AA010815AA010815AA010815AA010860
:10008000F10F0208B50F020815AA010800000000D0
:1000900000000000000000000000000015AA010898
:1000A00015AA010815AA010815AA010815AA010830
:1000B00015AA010815AA010815AA010815AA010820
:1000C00015AA010815AA010815AA010815AA010810
:1000D00015AA0108C10E0208210F02080000000045
:1000E00015AA010815AA010815AA010800000000B8
:1000F00000000000000000000000000015AA010838
:1001000000000000012B020815AA010815AA010829
:1001100000000000000000000000000000000000DF
:1001200015AA010815AA010815AA0108C52A02087E
:1001300015AA0108000000000000000000000000F7
:1001400000000000000000000000000015AA0108E7
:1001500015AA010815AA010815AA010815AA01087F
:1001600015AA010815AA01080000000000000000FF
:10017000000000000000000000000000000000007F
:100180000000000015AA01080000000000000000A7
:1001900015AA01082DE9F04F81B08B4601680F6860
:1001A00001890026B0464FF00409B24639B304462F
:1001B00060683A684168106801EB0A0504F080F84D
:1001C00028600121A980761C3869E88008F10108BF
:1001D000F96829810AF1140AB868E8603968886802
:1001E0002861206850F809702089804509F10409C8
:1001F000DED3B0B218B160684168CBF80010B0B27D
:1002000001B0BDE8F08F30B41469136A5C438460B8
:100210008D886C43C4600969C368416019440160FA
:1002200012681468A10007D49468D1684368641AFE
:10023000191991604068D06030BC70472DE9F041D9
:10024000054600262868016828890427B04638B387
:100250006868026802EB08040A68136890686168BD
:100260009B0003D5A2681AF04FF905E0D368C01AC5
:100270000B1893606068D0606068A16808442168CA
:100280006060884202D3E068404208446060761CA7
:100290002868C15928893F1D864208F11008D7D324
:1002A000BDE8F0812DE9F041054600262868016887
:1002B00028890427B04688B36868096802680B6813
:1002C00002EB08049B006068A2680ED589681AF0EA
:1002D0001BF96268A068216810448842606002D3FC
:1002E000E0684042084460600FE0104422686060AB
:1002F000904202D3E0684042104460608A68CB6854
:10030000D21A104488606268CA60761C2868C15995
:1003100028893F1D864208F11008CDD3BDE8F08141
:10032000002800D170472DE9F04781B0002305B4C3
:1003300081B0C26B438201980382019B187A00F05E
:100340000300032804D03022112103F10C00CEE079
:1003500000291CBF1089002800F0C3801068B1F884
:1003600004A00468009200270425B9460E1D0098D9
:1003700001898F4280F0B18041680A6802EB090868
:10038000002C18BFB8F1000F00F0AB802068738814
:10039000B6F804C0B268416803FB0CFE02FB0EFE17
:1003A0007145C0F0A080D4F810E09E4504BFE3681A
:1003B000634504BFA368934240F09580006804F051
:1003C00057F82169226A51438842C0F08C80206826
:1003D000006803F075FF56F8041C20F07E4021F001
:1003E0007E41884215D1F06800287AD0308890B1DB
:1003F000504528BF82462246311F4046FFF703FF83
:10040000009801684C597F1C143609F110092D1D04
:10041000ADE7192268E0212266E00199CA6B0C322F
:100420001189002973D013681C68009200270425E5
:10043000B946061D009801898F425ED241680A685C
:1004400002EB0908002C18BFB8F1000F5CD020683F
:100450007388B6F804C0B268416803FB0CFE02FB67
:100460000EFE714553D3D4F810E09E4504BFE368F7
:10047000634504BFA368934249D1006803F0F8FFC5
:100480002169226A5143884241D32068006803F001
:1004900017FF56F8041C20F07E4021F07E41884270
:1004A00015D1F06800282FD0308898B1504528BF6A
:1004B00082462246311F4046FFF7A5FE009801689C
:1004C0004C597F1C143609F110092D1DB2E7192271
:1004D00013210AE02122132107E0029800289CD171
:1004E0000EE0172200E01822122101980C3000F0D3
:1004F0008EFA002004B0BDE8F0870198A0F810A0A3
:10050000012004B0BDE8F08717221321EDE718227F
:100510001321EAE7DFF8A8040168490849000160EF
:100520000120DFF8A014886088680028FCD1DFF87B
:1005300098240A600868DFF89414884200D0FEE727
:10054000AAA07047DFF878040168490849000160F3
:100550000120DFF87014886088680028FCD1DFF87B
:1005600068240A600868DFF86414884200D0FEE757
:100570000FF2644210687047DFF8440401684908CC
:10058000490001600120DFF83C1488608868002879
:10059000FCD1DFF834240A600868DFF830148842A0
:1005A00000D0FEE70FF2344210687047DFF8100405
:1005B00001684908490001600120DFF808148860DB
:1005C00088680028FCD1DFF800240A600868DFF89A
:1005D000FC13884200D0FEE70FF204421068704717
:1005E00020B10168DFF8E823914200D00020DFF855
:1005F000D0130A68520852000A600121DFF8C423B0
:10060000916091680029FCD1DFF8BC331360116858
:10061000DFF8B823914200D0FEE77047DFF8B0134F
:100620000160704720B10168DFF8A423914200D037
:100630000020DFF88C130A68520852000A6001217A
:10064000DFF88023916091680029FCD1DFF87833CE
:1006500013601168DFF87423914200D0FEE7002890
:100660001CBF0C3000F0CEB90FF288300068704724
:1006700000281CBF0C3000F0CAB970472DE9F04FBC
:100680005FEA000981B00C4605D0D9F80000DFF818
:100690004013884201D04FF00009DFF82453DFF8FF
:1006A000246328684008400028600121B160B068D8
:1006B0000028FCD1DFF81073DFF810833760306852
:1006C000404500D0FEE7B9F1000F18BF002C00F044
:1006D000888000206066D9F84420002A00F07B80E2
:1006E000616E491C6166906882421CBF0028024608
:1006F000F6D16EE0D9F83C0004F13401FFF74AFD71
:10070000208610B91822122167E0D9F83C0004F1C4
:1007100038010C30FFF73EFD608610B91822132116
:100720005BE0D9F80400A06609F1280292E8085CB1
:1007300004F13C0109F1140981E8085C99E80E50C4
:1007400004F1500080E80E502868400840002860FE
:100750000123B360B0680028FCD13760316841459F
:1007600000D0FEE721A020612968490849002960DE
:10077000B360B0680028FCD137603168414500D0D3
:10078000FEE70FF2542002686261296849084900B7
:100790002960B360B0680028FCD1376031684145FA
:1007A00000D0FEE78DA0026862622968490849000E
:1007B0002960B360B0680028FCD1376031684145DA
:1007C00000D0FEE786A00268A262012001B0BDE869
:1007D000F08F00298ED11822112109F10C0000F0B0
:1007E00016F9002001B0BDE8F08F00000000000005
:1007F00070B5049D04460598DBB22D0445EA0365F7
:1008000045EA00257CA006686D4801684908490052
:10081000016001206B49886088680028FCD16A4B20
:100820000B6008686949884200D0FEE71CB900BF28
:1008300072A0006870BD66491160C4F8002000F025
:10084000DFF808B967A00AE062498D4228BF0FF2BD
:10085000981004D265A000F0EFF818B964A00668FB
:1008600000212160304670BD28B10168584A91428C
:1008700008BF024600D0002251490B685B085B00AC
:100880000B6001214F4B996099680029FCD1DFF87A
:1008900038C1C3F800C019684C4B994200D0FEE73C
:1008A00002B1002070472DE9F04F81B00A4618B11F
:1008B0000168474B994200D0002041490B685B0812
:1008C0005B000B6001213F4B996099680029FCD1C6
:1008D0003D4C1C6019683D4B994200D0FEE7002852
:1008E00034D00AB9112212E01369516A39B9918BD7
:1008F000558B146A6943614318BF132207D173B93A
:100900001189D488D3686143594308D01222102139
:100910000C3000F07CF8002001B0BDE8F08FF8CA80
:1009200000F1140100F1280C81E8F80092E8004F72
:100930008CE8004F0321426C81603AB191685060AD
:100940008A4218BF002918BF0A46F7D101B0BDE896
:10095000F08F70B5040003D020681D4B984200D082
:100960000024174803685B085B0003600120154BF7
:10097000986098680028FCD1134D1D601868134BCF
:10098000984200D0FEE72046FFF7CAFCB8B1608A63
:10099000218AE56B884205F10C060FD22846FFF745
:1009A0004DFC204600F0F2F83046FFF77BFC608AF1
:1009B000218A401C608280B28842EFD3608A70BD79
:1009C000002000E000300240C2A507F4CDB5E8B534
:1009D0000001C0A1010003010400000001010000AA
:1009E00001030000301000000110000003840484A3
:1009F00002100000101000000000000010100000A5
:100A0000012070470146002208680A607047037899
:100A10005FEA036C04D141EA0221016001207047C2
:100A20000020704710B50446E1688847A068A042DE
:100A300008BF002010BD000000B581B060B1017892
:100A4000032909D15FF004028CA104F0A5FB401E2C
:100A50008041C00F01B000BD002001B000BD00000A
:100A600042F21172811A012981BFC91E0D290F3965
:100A7000092900F26B80801A33D0401E33D0801ECB
:100A800033D0401E34D0401E34D0401E34D0401EDF
:100A900034D0401E34D0401E34D0401E34D0401ECE
:100AA00034D0401E34D0401E34D0401E34D0401EBE
:100AB00034D0401E34D0801E34D0401E34D0401E6E
:100AC00034D0401E34D0401E34D0401E34D0401E9E
:100AD00034D0401E34D0401E34D0401E34D01CA030
:100AE00070471CA070471CA0704700BF31A0704722
:100AF00032A0704719A0704719A0704731A0704705
:100B000018A0704731A0704732A0704736A07047D8
:100B100037A0704714A0704737A0704738A07047BF
:100B20003AA070473EA070473FA0704740A0704772
:100B300042A0704743A0704744A070470BA0704785
:100B400048A0704749A070474AA0704700A070476E
:100B50000000000041444400424E0000475255004E
:100B60004C524E004E4C0000534D0000504144008A
:100B700042F21171401A012881BFC01E0D280F38A2
:100B8000092801D8012070470020704730B504467D
:100B900081B0606C58B1A064A56CE96828468847AC
:100BA000A868A84208BF00200028A064F4D101B0C2
:100BB00030BD0000434F4E563244000044454E5372
:100BC000450000004C53544D000000004E4F524D64
:100BD000000000004F5054494D495A45445F434F6F
:100BE0004E563244000000005045524D55544500C9
:100BF000504F4F4C0000000053504C49540000002F
:100C000054494D455F44454C4159000054494D45B8
:100C10005F44495354524942555445440000000032
:100C2000434F4E434154000047454D4D00000000E6
:100C3000555053414D504C4500000000454C545711
:100C40004953450047454E4552494300494E535488
:100C5000414E43454E4F524D414C495A4154494FE4
:100C60004E000000534C49434500000054494C4598
:100C700000000000524544554345000003840484AD
:100C80002DE9F04F81B08B460E9DDDF828A00F9C1A
:100C9000DDF840E0129EDDF834C0DDF84C90DDF860
:100CA0002C801946119BA5EB090707FB08F7009755
:100CB000E41A05FB08F705FB0E6508FB05F57C4308
:100CC00001EB8506DA450C99ACEB09000CBF9FEDF2
:100CD000AB0AB7EE000A0CFB0EF500FB08F009FBAF
:100CE00008F908FB05F5002902EB850800F0708083
:100CF00029F00302DAED000A002B60EE800AC446F8
:100D00005CDD009D9E460027002A1DDD96ED004A11
:100D1000DCED004A96ED013ADCED013A96ED022A4F
:100D2000DCED022A96ED031ADCED031A44EE240AE8
:100D300043EE230A10363F1D42EE220A974241EE4F
:100D4000210A0CF1100CE1DB4F452FDA7F1C96EDE8
:100D5000001ADCED001A361D4F4541EE210A0CF158
:100D6000040C23DA7F1C96ED001ADCED001A361D08
:100D70004F4541EE210A0CF1040C17DA7F1C96ED69
:100D8000001ADCED001A361D4F4541EE210A0CF128
:100D9000040C0BDA7F1C96ED001ADCED001A361DF0
:100DA0004F4541EE210A0CF1040CCFDBBEF1010EE0
:100DB0000CEB800C06EB8506A5D10095CBED000A67
:100DC000491E06EB84060BF1040B0AF1040A91D1CB
:100DD00001B0BDE8F08F00002DE9F04781B002B40A
:100DE00084B0109EDDF83CA0DDF84480179813997C
:100DF000159CDDF83CC0129DDDF850E0169FDDF833
:100E00003890B6FBFAF6A8EB000A0CFB0AFA091BAD
:100E1000A5EB000C694305FB0E7503EB8507049BEE
:100E200099450F9B0CBF9FED550AB7EE000A08FBD2
:100E30000EF55D4302EB850E0EEB8305AE454FF0DC
:100E40000008009580F0978020F00303CDF83890DB
:100E50000396039A002A00F088800E9A049E02EB03
:100E60008809039A159406EB88060291CDF804E0F0
:100E70001599D9ED000ADDF804E0002960EE800A3A
:100E800063DD0024002B26DDDDF83C5097ED001AD1
:100E9000DEED001A0EEB850E41EE210A97ED011AE8
:100EA000DEED001A0EEB850E41EE210A97ED021AD7
:100EB000DEED001A0EEB850E41EE210A241D97EDA2
:100EC000031ADEED001A10379C4241EE210A0EEBA8
:100ED000850EDBDB0F95844231DA0F9D641C97EDA4
:100EE000001ADEED001A3F1D844241EE210A0EEB8E
:100EF000850E23DA641C97ED001ADEED001A3F1D03
:100F0000844241EE210A0EEB850E17DA641C97ED40
:100F1000001ADEED001A3F1D844241EE210A0EEB5D
:100F2000850E0BDA641C97ED001ADEED001A3F1DEA
:100F3000844241EE210A0EEB850ECFDB0F95491E50
:100F40000EEB8A0E07EB8C079BD10299C6ED000AC7
:100F5000361D521E07EB810708F1010809F104094B
:100F600086D1159C0299DDF804E0009A0EF1040E7A
:100F70009645FFF46EAF06B0BDE8F08700000000B4
:100F80002DE9FA4F85B09346BDF950901B9C1299FC
:100F9000BDF95480DDF85CE0189A199F1A9B1C98E3
:100FA000CA465546AAEB040C94FBF5F605FB06C5AC
:100FB00095FBFAFC0AFB1C55019554444546EE1B73
:100FC00097FBF5FC05FB0C6C9CFBF5F605FB16CCC2
:100FD000CDF800C0641E019E801B5044401E90FB53
:100FE000FAF0009E9B1BB1FBF2F6EB185B1E93FB25
:100FF000F5FCAEEB0C0E119B0496B3FBF2F31399C8
:10100000119E01FB08F800FB1A8806FB08F806FB96
:1010100009F1169E5E430EFB06FEEE19761E96FB48
:10102000F5F5169E94FBFAF4A1EB030906FB0544C3
:10103000069E1699059D5C4306EB8404091A109ED2
:101040005943AE42009D019E2F44139D05FB076549
:10105000119F0CBF9FED3D0AB7EE000A7D43002AA9
:101060000BEB85054FF0000A6DD00092049A002A20
:1010700063D0109A059FCDF804C002EB8A0B049A46
:10108000CDF80CE007EB8A07CDF80850DDF804E056
:10109000DBED000A029DBEF1010F60EE800A3BDB32
:1010A000012832DB4FEA000C05EB8306B54227D25C
:1010B00094ED001AD5ED001A241D2D1DB54241EE08
:1010C000210A1DD294ED001AD5ED001A241D2D1D04
:1010D000B54241EE210A13D294ED001AD5ED001A63
:1010E000241D2D1DB54241EE210A09D294ED001AAE
:1010F000D5ED001A241D2D1DB54241EE210AD7D38E
:10110000BCF1010C05EB8905CED1BEF1010E05EB5A
:10111000880504EB8104C3D1039DC7ED000A3F1D80
:10112000521E04EB85040AF1010A0BF1040BADD148
:10113000DDF804C0DDF80CE0029D009A521E05EBBC
:101140008305009292D107B0BDE8F08F0000000047
:101150002DE9F24F90B01A9901B91099269C259E5D
:10116000249D239FDDF888E0BDF978C0BDF97C801F
:101170000F90ED1BA41B0E920D93BEF1010F1B9857
:101180001C9A1D9BDDF88090DDF884A004BF1CFB39
:1011900008FBBBF1010F14D103930292019000915F
:1011A0000D9B0E9A10990F9809940896079506972B
:1011B000CDF814A0CDF81090FFF762FD11B0BDE896
:1011C000F08F864504BF1CFB08FBBBF1010F14D157
:1011D00003930292019000910D9B0E9A10990F9823
:1011E0000994089607950697CDF814A0CDF81090AD
:1011F000FFF7F2FD11B0BDE8F08F0393029201906A
:101200000091CDF820E0CDF810C00D9B0E9A1099FA
:101210000F980C940B960A950997CDF81CA0CDF861
:101220001890CDF81480FFF7ABFE11B0BDE8F08F39
:101230002DE9F04F91B00446DDF874801E9DDDF875
:1012400094B0269808FB00B0002D01905DD002916B
:101250000E9200950D931A9F249E1A9725460F957E
:101260001F9B209CDDF888C0DDF88CE02198DDF81C
:101270006C90BDF9A010BDF9A420029D1C9F1F9386
:101280002094CDF888C0CDF88CE02496279EDDF818
:1012900004A0009CADF8A010ADF8A420ADF8840027
:1012A000DBF10000D8BF0020A8EB0B01B14228BF42
:1012B00031460C910B90CDF80C800297CDF804903C
:1012C00050442499239A0D9B0A91099200FB09F03E
:1012D0002299209A089107921F99BDF9A42006919E
:1012E0000592BDF9A0101A9A049100920E9901EB93
:1012F00080020F982946FFF72BFFBDF88400641E7B
:1013000005EB870583448244CAD111B0BDE8F08F54
:1013100070470000F0B40446049803EB8005203DBC
:1013200008289FEDD90A2FD22035AB4224D2087865
:1013300093ED001A02EB8006181DD6ED000AA842B4
:1013400000EE810A18D24B7890ED001A02EB83066A
:10135000001DD6ED000AA84200EE810A0CD28B785F
:1013600090ED001A02EB8306031DC91CD6ED000A9E
:10137000AB4200EE810ADAD3D4ED000A30EE800AE7
:1013800084ED000AF0BC704701F003000328F3D895
:10139000DFE800F00336414CEEE79D4280F0D58057
:1013A0002035AB42E8D2087893ED001A02EB8006B4
:1013B000181DD6ED000AA84200EE810ADCD24B7857
:1013C00090ED001A02EB8306001DD6ED000AA8423C
:1013D00000EE810AD0D28B7890ED001A02EB8306E2
:1013E000031DC91CD6ED000AAB4200EE810ADAD318
:1013F000D4ED000A30EE800A84ED000AF0BC70479C
:1014000011F8010B93ED001A02EB80061B1DD6EDBF
:10141000000A00EE810A11F8010B93ED001A02EBAD
:1014200080061B1DD6ED000A00EE810A11F8010BA3
:1014300093ED001A02EB80061B1DD6ED000A9D42BB
:1014400000EE810A4ED3CF7893ED004A93ED013A36
:1014500093ED022A93ED031A02EB87068F78D6EDFF
:10146000000A02EB87064F78D6ED001A02EB8706DA
:101470000F78D6ED002A02EB870603F11000D6EDB7
:10148000003A0B7903EE840A02EE830A01EE820A27
:1014900002EB830700EE810A4B79D7ED000A90ED4D
:1014A000004AD0ED013A90ED023AD0ED032A02EB6A
:1014B00083078B7997ED001A02EB8307CB79D7ED81
:1014C000001A02EB830700EE840A083100F11003D2
:1014D00001EE230A97ED002A01EE830A9D4202EEF7
:1014E000220AB0D22035AB42BFF446AF087893ED64
:1014F000001A02EB8006181DD6ED000AA84200EE85
:10150000810ABFF439AF4B7890ED001A02EB8306E5
:10151000001DD6ED000AA84200EE810ABFF42CAFF0
:101520008B7890ED001A02EB8306031DC91CD6EDE3
:10153000000AAB4200EE810AD8D3D4ED000A30EEA7
:10154000800A84ED000AF0BC7047CF7893ED004A22
:1015500093ED013A93ED022A93ED031A02EB87060D
:101560008F78D6ED000A02EB87064F78D6ED001A89
:1015700002EB87060F78D6ED002A02EB870603F10F
:101580001000D6ED003A0B7903EE840A02EE830ACE
:1015900001EE820A02EB830700EE810A4B79D7ED58
:1015A000000A90ED004AD0ED013A90ED023AD0EDFC
:1015B000032A02EB83078B7997ED001A02EB83076E
:1015C000CB79D7ED001A02EB830700EE840A0831CD
:1015D00000F1100301EE230A97ED002A01EE830AC1
:1015E0009D4202EE220AB0D2DAE60000F0B4049C7A
:1015F00065086D0003EB8505AB429FED230A2FD2F2
:1016000011F8016B93ED002A93ED011A06F00F0714
:10161000360902EB860602EB8707D6ED001AD7EDF6
:10162000000A083301EE820AAB4200EE810A17D2AB
:1016300011F8016B93ED002A93ED011A06F00F07E4
:10164000360902EB860602EB8707D6ED001AD7EDC6
:10165000000A083301EE820AAB4200EE810ACFD3C2
:10166000E40709D5097893ED001A090902EB810214
:10167000D2ED000A00EE810AD0ED001A31EE800AA8
:1016800080ED000AF0BC704700000000F0B4044692
:101690000598049E042B04EB800503D0082B3ED054
:1016A000F0BC7047AC4259D270082ED0C3070CD59D
:1016B0000F783F0952F82730236011F8017B07F0BB
:1016C0000F0752F827306360083440081DD00B78AC
:1016D0001B0952F82370276011F8013B03F00F0338
:1016E00052F82370676004F108030C78240952F85B
:1016F00024701F60401E11F8014B04F00F0452F8D3
:1017000024705F6003F10804E1D1F007CAD511F835
:10171000013B1B0952F8230044F8040BC2E7AC421A
:101720001CD20B7852F823002060201DA8423FBF36
:101730004B7852F8234040F8044BA8420ED28B78E5
:1017400052F8234040F8044BA84207D2CB7852F815
:1017500023400460091D041DAC42E2D3F0BC704775
:101760002DE9F04F0546A7B068690068C2681368A4
:1017700001688269008C0C68D2F800B0012890687A
:10178000CCBF51680021A2681B929E680396D3F8D3
:1017900010A0DA68159226691A96E76821976E6A92
:1017A000ADF840602F8D2097AA6B1768B2F80480BF
:1017B000EA6A19922E6B1896DBF80C201492DBF86B
:1017C00008601396AA691F92226894681E94DBF839
:1017D0000020D2F8089019B10A689468179401E0C3
:1017E0000022179219688A680292E96958B1036861
:1017F0009A6812921C92C06924905968186802F085
:1018000037FE04460AE019B1886812901C9002E085
:10181000002212921C91002224920124286A00289E
:1018200018AA12BF2390DFF8881B239114991388FC
:10183000481E5B1E19AA03FB00111691139813880A
:10184000411E5B1E03FB01001D900026DBF800100B
:1018500008680022C3114FEA605C401400F00F00DA
:1018600003F07F030CF0030C042823FA0CF314BFDD
:101870000828CA6882B168690068456A286808B1A2
:101880000668B6680068406801901B980090304672
:101890008968FFF7FBFE06B94E46BFB27F42BAF138
:1018A000000F65D0C8F10008CDF894805246029D23
:1018B000DDF80CA0269611972292259811991A9A74
:1018C000119B169E4942D8BF0021D21AB2423DBF99
:1018D0001A9B119A9A1A32460B9009910A921F98F4
:1018E000BDF8401008900791CDF808A014981399FE
:1018F000189B069005911BB215982199199E1E9A66
:101900000F930490039136B21D9B1B9817990E9666
:101910000D93019000912946119E269B0C96002064
:10192000FFF786FC1598D8B1129E1C9FDDF89080B9
:10193000DDF88C9083463346524629462846C847F0
:101940004644F01BA042A8BF3E46BBF1010B05EB8D
:101950008A05F0D112961C97CDF89080CDF88C9026
:1019600011982099081811902298401E2290A4D115
:1019700027B0BDE8F08F00002DE9F04F0746B9B061
:1019800078690068C268166801688269008C0B6813
:10199000D2F800B09C6801289068CCBF5168002143
:1019A0002494B568029534692394F56822951C69DE
:1019B0001C94DD682E957C6AADF84C403D8D2195D8
:1019C000BA6BBD69B2F80080B2F8049094682D95A6
:1019D000FA6A20923D6B1F95DBF808201B92DBF81A
:1019E0000C501A95FA6B2C927D6C2B95BA6C169252
:1019F0003A6D1568D2F804E0CDF8A8E092681E921E
:101A00001A6893682993DBF80020D2F808A019B16E
:101A10000A6893681D9301E000221D92F96958B18C
:101A200003689A6818921092C069159059681868EE
:101A300002F01EFD14900BE019B189681891109105
:101A400002E00022189110920021012215911492B7
:101A50001FAA386A002812BF3090DFF8541930915D
:101A6000796D1A98138828915B1E411E20AA03FBEA
:101A7000010019901B991388481E5B1E03FB00117F
:101A80002791396C1C9A19981291121A4244219983
:101A900012FA84F0B0FBF1F1491C11910024DBF83B
:101AA000001008680022C3114FEA605C401400F087
:101AB0000F0003F07F030CF0030C042823FA0CF34F
:101AC00014BF0828CA68A2B178690068D0F824E079
:101AD000DEF8040008B10468A4680068406801905A
:101AE0002498009020468968FFF7D0FD0CB123466A
:101AF00000E053467A691468626A14682768D7F868
:101B000008A0E2681E9FDDF808C0306857430CFB50
:101B100007F7BF003697002116AFC9F100097F5EB5
:101B200035972DB2029FDDF888E00EFB07F734975A
:101B30002E46029F57433397CDF8C890C8F100084E
:101B4000109F3197239F002F00F00081E1463793CB
:101B500026902F912592CDF85C80119800285DDDAC
:101B600017991C9A179B32984942D8BF0021D21A64
:101B7000199B9A423DBF1C9B179A9A1A1A461F9BA3
:101B80001BB20F93209B1BB20E93279B0D93179BA9
:101B90000C930B9009910A922D98BDF84C10089067
:101BA0000791CDF808901A981B99069005912598F1
:101BB0002E990490039124981D9901900091379BD0
:101BC000299A51460020FFF733FB259820B3DDF812
:101BD0006080309F834643464A4651465046B84748
:101BE0001598319980441498A8EB0101814220682E
:101BF0004168C068A8BFDDF840800AEB890A00EBA5
:101C00008102924502D3890049428A44BBF1010B0B
:101C1000E1D1CDF860803097761C36B21198401E25
:101C2000002811904EDC33987043800040420AEB4C
:101C300000012068C26891423CBF436801EB830108
:101C40008A42574632D212ABB3F900309E422DD0B1
:101C5000436802EB8302914280F0288051F8043BF4
:101C60004AF8043BC268436802EB830291421DD2EA
:101C700051F8042B4AF8042B4368C26802EB830234
:101C8000914213D251F8042B4AF8042B4368C268DE
:101C900002EB8302914209D251F8042B4AF8042B3B
:101CA0004368C26802EB83029142D7D3119800289F
:101CB00006D53699504618F017FC1E98861936B28C
:101CC0001296BA461298864236D12F98229ADDF89B
:101CD000A0C01699401C2F9092B2269808900692A8
:101CE0001FFA89F31698129A80B2059092B22A9838
:101CF00080B20290761A0121079136B22B992C9866
:101D000089B2049180B2A9B203910090129989B26C
:101D100001912599206889B2E04726988168349816
:101D200001EB800226998A603598281A0028C3BFE3
:101D300016982D1A2DB2002517982199081817907A
:101D400023992F988842FFF408AF26982168CA6823
:101D50008A60C168816039B0BDE8F08F2DE9F04F2D
:101D600081B02DED028B88B04069006801680A6877
:101D7000C3688169008C1F68D1F800E09468DEF8C0
:101D80000090D7F808C0D9F8005012680228ACBFFC
:101D90004B680023F96838693F68BF6841430020F9
:101DA000EE1106F07F086E156D1405F00F05042D79
:101DB00014BF082DD9F80C009568DEF8189006F0CD
:101DC0000306002928FA06F807EB8C0200F0EB80E6
:101DD000CDF81CE00593CDF818C001920491079945
:101DE0000A680599D2F808B0019B00291ABF0A6851
:101DF00092680022002840F0AB809F4280F0C780AC
:101E00000390002A0EBF9FED6B0A92ED000A121D8F
:101E1000042C2046AE46DC46DFED660A5DD3A10801
:101E2000CE071CD59CED004ADEED004A9CED013A40
:101E3000DEED013A9CED022ADEED022A9CED031A4A
:101E4000DEED031A44EE240A43EE230A42EE220A90
:101E500041EE210A0EF1100E0CF1100C001F490882
:101E600000F03B80DEED004ADEED013ADEED022AB5
:101E7000DEED031A9CED031A9CED022A9CED013A5B
:101E80009CED004A44EE240A43EE230A42EE220A65
:101E900041EE210A0EF110060CF1100CD6ED008A6D
:101EA0009CED008A9CED017AD6ED017A9CED026AE8
:101EB000D6ED026A9CED035AD6ED035A48EE280A85
:101EC00047EE270A083846EE260A491E45EE250A3F
:101ED00006F1100E0CF1100CC4D178B310F0030110
:101EE00000F00C809CED001ADEED001A491E41EE58
:101EF000210A0EF1040E0CF1040CF3D180081DD060
:101F00009CED002A9EED001ADCED011ADEED012A9F
:101F100042EE010A41EEA20A9CED022A9EED021A4F
:101F2000DCED031ADEED032A42EE010A401E41EE0B
:101F3000A20A0EF1100E0CF1100CE1D130EE200AC5
:101F400087ED000A3F1D9F42CB44FFF45AAF1DE0CE
:101F50009F421CD29A4603901646002E14BF56F894
:101F6000040B00200290B8F1040F039A00942B4652
:101F7000594602A802D1FFF739FB01E0FFF7CAF981
:101F8000029847F8040B5745CB44E6D303980199D0
:101F9000069A01EB820304990193491E05EB84051F
:101FA00004917FF41CAF08B0BDEC028B01B0BDE81A
:101FB000F08F0000000000002DE9F04F15468AB0B8
:101FC000426803929946149B6C6800948B465E6845
:101FD0000488B3F800C0B3F802A04088BBF8001032
:101FE000BBF80220B5F800E06F88DBF804300693F8
:101FF000059300254FFA89F3002B0CBFA0468046BD
:10200000012F0CBF00230423BEF1010F04D1012FC7
:1020100007D0CAF1000E05E0012F08BF4FF0010EF6
:1020200000D0AE460FFA8EF704974FFA89F7002FCB
:102030000CBFA3468346E34517D19DF94CE0BEF1A2
:10204000000F0CBF01920191019F57450DD14FFA2E
:1020500089F7002F0CBF8346A346BEF1000F0CBFCB
:102060000F461746BB4500F08D800AFB0CF3002B92
:102070006FF0020040F383806D1C0021AAB2316032
:102080009A42BFBF71606D1CAAB29A4277DA6D1C8A
:10209000AAB29A42B16072DAF1606D1C1036AAB22F
:1020A0009A42E9DB0AB0BDE8F08F069D97000897D9
:1020B00087000797CDF80CC0ADF808404FEA080438
:1020C000DDF814C04FFA89F7002F0CBF8246BDF827
:1020D00008A0DDF80C80BAF1000F9FEDB41A18D0FB
:1020E0004FFA89F7002F0CBF0427079FBEF1000F9E
:1020F000AAF1010AD8ED001A95ED002AB8440CBFE8
:10210000089F0427ED191FFA8AF7002F01EE821AA3
:10211000E6D120EE011ADBED001A00EEA11A86EDE1
:10212000001A361D641EA4B2BEF1000F0EBF151BAF
:102130000D1B5543002C9B440CEB8505C2D1BDF80B
:102140000260039DBDF80840CDF814C0019F3E44D5
:10215000ADF802604FFA89F6002E0CBF4FEA800CF2
:102160004FF0040CAC44049DBDF800600BEB850BF4
:10217000751EADF80050BDF8005065B900200AB0DA
:10218000BDE8F08FDDF80CC0DDF800B00996ADF8C1
:102190000250ADF80080099FBDF80250BEF1000F5B
:1021A00007EB85060CBF904688467EE7F0B50446EF
:1021B0008BB0606900680168C36802890026002747
:1021C0000D68D3F800C0032A02D14E688F680AE078
:1021D000022A03D180694E68076804E0012A02D10F
:1021E000806906684768DCF80000DCF8082083682E
:1021F000DCF8101092B289B208A818F011FC296816
:102200008B68AA68296992B289B206A818F008FCFE
:102210003068B2688368316992B289B204A818F054
:10222000FFFB3868BA688368396992B289B202A83C
:1022300018F0F6FB08A8019002AA94F92110009169
:1022400004A994F92030D4ED070A94ED060A06A8F3
:10225000FFF7B2FE0BB0F0BD2DE9F04F8BB0406937
:1022600001680A6810685768CA6814680FB98969F4
:102270000F68A268D0F804E07D68D4F804C0C16893
:10228000D7F80C80D4F80CB02369069301FB0EFA42
:102290002468A36804694C430EFB04F40A943E6965
:1022A00008FB06F66E43002A099608FB05F879D06C
:1022B0000024A1460292069A002A69D000260096C0
:1022C000CDF814A0CDF80CB0069ADDF800A001926C
:1022D000039A002A52D007954FF0000BCDF810C09A
:1022E0000092049A002A3FD04FF0000C0890089802
:1022F00005683868AE68806836195644484406EB6D
:102300000C05584400EB0C069FED280A21B3C807C2
:1023100009D5D5ED000A96ED001A00EE810A05EB0D
:102320008E0506EB8806480800F01680D5ED000AF9
:1023300096ED001A05EB8E0506EB880600EE810A85
:10234000D5ED000A96ED001A401E00EE810A05EB5D
:102350008E0506EB8806E9D183ED000A1B1D521E8F
:102360000CF1040CC3D10898009D079A6D1E0BEB6D
:10237000820B0095B5D11546DDF810C0019E059A77
:10238000761E0AEB820A0196A2D19246DDF80CB0C5
:10239000099A0A9E09EB8209029A521E04EB8604EE
:1023A000029288D10BB0BDE8F08F00000000000061
:1023B000111300082DE9F0410F4614462DED028B54
:1023C000022C064697ED008ADFEDC58A3DD3611EDB
:1023D0003A1D11F003000CD092ED000AB4EE480A49
:1023E000F1EE10FA58BFB0EE408A401E02F104022E
:1023F000F2D1890800F02B8092ED000AB4EE480A71
:10240000F1EE10FA58BFB0EE408A92ED010AB4EE38
:10241000480AF1EE10FA58BFB0EE408A92ED020A77
:10242000B4EE480AF1EE10FA58BFB0EE408A92EDD1
:10243000030AB4EE480AF1EE10FA58BFB0EE408A33
:10244000491E02F11002D7D101E0002C40D0B04665
:102450004FEA040597ED000A30EE480A08F0A8FD9F
:102460003F1D88ED000A6D1E78EE808A08F1040891
:10247000F0D1B7EE000A14F0030080EE280A09D06C
:10248000D6ED000A60EE800AC6ED000A401E06F195
:102490000406F5D1A4081BD0D6ED000A60EE800A30
:1024A000C6ED000A641E96ED011AD6ED020A21EE71
:1024B000001A86ED011A60EE800A96ED031AC6ED49
:1024C000020A21EE001A86ED031A06F11006E3D186
:1024D000BDEC028BBDE8F0812DE9F04381B00C46E4
:1024E000089F099EBF007F4204EB8201CD19B60010
:1024F000764200EB8200A542984600EB060909D31C
:102500000023424629464846FFF754FFED19A542ED
:10251000B144F5D201B0BDE8F083000070B50C46BF
:1025200004EB820100EB82000D1F061FA54209D3B8
:1025300095ED000A08F0E0FC86ED000A2D1F361F1D
:10254000A542F5D270BD000070B50C4604EB8201C7
:1025500000EB82000D1F061FA54213D395ED000A64
:10256000B1EE400A08F024FDF7EE000A70EE200AF2
:10257000B7EE000A80EE200A86ED000A2D1F361FF6
:10258000A542EBD270BD000001EB820300EB82009C
:102590001B1F001F8B4221D3B7EE000ADFEDA60AF6
:1025A000D3ED001A9FEDA52AB6EE001A01EE821AAD
:1025B000B4EE601AF1EE10FA08DAB5EE401AF1EE58
:1025C00010FA05D59FED461A02E000BFB0EE401AA2
:1025D00080ED001A1B1F001F8B42E1D270470000E4
:1025E00070B50C4604EB820100EB82000D1F061F44
:1025F000A54209D395ED000A08F0DAFC86ED000A41
:102600002D1F361FA542F5D270BD000070B50C46D7
:1026100004EB820100EB82000D1F061FA54209D3C7
:1026200095ED000A02F07AF886ED000A2D1F361F9C
:10263000A542F5D270BD000070B50C4604EB8201D6
:1026400000EB82000D1F061FA5420FD395ED000A77
:1026500008F0AEFCF7EE000A30EE200A08F02CFD80
:1026600086ED000A2D1F361FA542EFD270BD000077
:1026700001EB820300EB82001B1F001F8B420FD374
:1026800093ED000AF0EEC00AB7EE001A70EE810A70
:1026900080EE200A80ED000A1B1F001F8B42EFD244
:1026A0007047000001EB820300EB82001B1F001F3C
:1026B0008B4214D34FF0FF3293ED000AB5EE400A7F
:1026C000F1EE10FACCBF9FEDB90A00EE102AB8EE79
:1026D000C00A80ED000A1B1F001F8B42ECD270471E
:1026E0000000000093ED000AD3ED010A01EB820324
:1026F00000EB82001B1F001F8B4215D393ED001AC5
:10270000B4EE410AF1EE10FA58BFB0EE401AB4EE42
:10271000601AF1EE10FA58BFB0EE601A80ED001AA0
:102720001B1F001F8B42E9D2704700002DE9F041CA
:102730005668D468884674430546A10017F0D4FE55
:102740000022002C4346B7EE000A5AD002F1010CD9
:1027500006EB020EF445D3ED000A49D2711E11F0CA
:10276000030008EB8C070FD097ED001AF4EE410A36
:10277000F1EE10FA44BFF0EE410A6246401E0CF141
:10278000010C07F10407EFD1890831D097ED001A49
:10279000F4EE410AF1EE10FA44BFF0EE410A62464F
:1027A00097ED011AF4EE410A0CF10100F1EE10FA76
:1027B00044BFF0EE410A024697ED021A401CF4EEC7
:1027C000410AF1EE10FA44BFF0EE410A024697EDDD
:1027D000031A401CF4EE410AF1EE10FA44BFF0EE89
:1027E000410A0246491E00F1010C07F11007CDD144
:1027F00005EB82007246A24280ED000A03EB8603DD
:10280000A4D3BDE8F081000001EB820300EB82005D
:102810001B1F001F8B420ED393ED000AB5EE400A3A
:10282000F1EE10FA48BF9FEDB90A80ED000A1B1FB8
:10283000001F8B42F0D270470100803FCDCC4C3E50
:1028400093ED000AD3ED010A93ED021A001FB5EED5
:10285000401A00EB82000B1FF1EE10FA03EB82022C
:102860002AD5F5EE400AF1EE10FA13D08A4210D3C1
:1028700092ED001AB4EE401AF1EE10FA44BF31EEB8
:10288000401A21EE201A80ED001A121F001F8A4202
:10289000EED270478A42FCD3D2ED000AF4EE400A31
:1028A000F1EE10FA48BFDFED990AC0ED000A121FE1
:1028B000001F8A42F0D270478A42EAD3D2ED001A52
:1028C000F4EE411AF1EE10FA0AD5F4EE401AF1EEE8
:1028D00010FA07D571EEC01A61EEA01A02E000BF2F
:1028E000F0EE411AC0ED001A121F001F8A42E5D215
:1028F0007047000093ED000A01EB820300EB8200B9
:102900001B1F001F8B420ED3D3ED000AF4EE400ACA
:10291000F1EE10FA48BFDFED7D0AC0ED000A1B1F83
:10292000001F8B42F0D2704770B50C4604EB820159
:1029300000EB82000D1F061F2DED048BA54293EDC9
:10294000008A2FD3D5ED008AF5EE408AF1EE10FA19
:102950004CBF9FED6E9AB0EE689AB0EE680A08F030
:1029600027FBFFEE000A30EE200A20EE080AB5EE43
:10297000400AF1EE10FA05DD9FED641A39EE019A76
:102980000AE000BFB0EE680A08F012FBFFEE000A92
:1029900030EE200A00EE089A86ED009A2D1F361FB1
:1029A000A542CFD2BDEC048B70BD00000100000039
:1029B00070B50C4604EB820100EB82000D1F061F70
:1029C0002DED048BA54293ED008AD3ED018A31D31E
:1029D00095ED009AB5EE409AF1EE10FA4CBFDFED9E
:1029E0004B9AF0EE499AB0EE490A08F0E1FAFFEE90
:1029F000000A30EE200A20EE080AB5EE400AF1EE99
:102A000010FA05DD9FED411A79EE819A0AE000BFC8
:102A1000B0EE490A08F0CCFAFFEE000A30EE200AC8
:102A200040EE089A28EEA90A86ED000A2D1F361FEF
:102A3000A542CDD2BDEC048B70BD000003EB820338
:102A400001EB820C00EB82001B1FACF1040C001F99
:102A50008C4520D39CED000AB5EE400AF1EE10FA49
:102A60004CBFDFED2A0AF0EE400A1A46B1EE400AEA
:102A7000131FB5EE400AF1EE10FA48BF9FED230A8E
:102A800092ED001A41EE400AC0ED000AACF1040CD0
:102A9000001F8C45DED2704730B402465069006892
:102AA0000168C0680B6805685C689868D9682D681B
:102AB0009269444318694C43196889684443A8687B
:102AC000CAB901EB840200EB8400121F001F8A4286
:102AD000C0F01A8092ED000AB5EE400AF1EE10FA4D
:102AE00048BF9FED0A0A80ED000A121F001F8A42AC
:102AF000F0D230BC704793685268012A224601D157
:102B000030BCF7E630BC9BE630BC704700000000EC
:102B100030B4416980690C68226815686B68A968DF
:102B2000EA684B4329692D685343826892ED000A95
:102B3000E26814684B43A9682568AA6801EB830022
:102B400002EB8303001F1A1F88420ED3D0ED000A48
:102B5000F4EE400AF1EE10FA48BFDFEDC10AC2ED13
:102B6000000A001F121F8842F0D230BC70470000DC
:102B700070B52DED048B41690E6832681468636886
:102B8000A168E26880694B4321692468A4685343C3
:102B90004B43816891ED008AF16804EB8300051FC7
:102BA00008680268916801EB8300061FA5422FD3D5
:102BB000D5ED008AF5EE408AF1EE10FA4CBF9FED9C
:102BC000A89AB0EE689AB0EE680A08F0F1F9FFEE44
:102BD000000A30EE200A20EE080AB5EE400AF1EEB7
:102BE00010FA05DD9FED9E1A39EE019A0AE000BF4A
:102BF000B0EE680A08F0DCF9FFEE000A30EE200AB9
:102C000000EE089A86ED009A2D1F361FA542CFD2FE
:102C1000BDEC048B70BD30B441690C6822688069DA
:102C2000156883686A68A868E968424328692D685E
:102C30004A434243E0680468A9682568A86830BC34
:102C4000B6E62DE9F04381B0406900680168C268CA
:102C50008069046820680D681768D0F808802CB176
:102C60004168006801F004FC814601E04FF0010971
:102C700028684168006801F0FBFB29683A688E68A3
:102C800095683718BE420FD26268A068E168424377
:102C900020694A434243434631462846FFF7CEFE69
:102CA0004E44BE424D44EFD301B0BDE8F083000076
:102CB00030B4406902681168D2680B685C68986833
:102CC000D968444318691B684C43444398681368A7
:102CD0001D68AA6800EB840102EB8403091F1A1F18
:102CE000814214D34FF0FF3391ED000AB5EE400A54
:102CF000F1EE10FACCBF9FED5B0A00EE103AB8EE91
:102D0000C00A82ED000A091F121F8142ECD230BCBA
:102D10007047000030B441690C68226815686B6820
:102D2000A968EA6880694B43296953434B432A6881
:102D300081689068E26891ED000A1468D1ED010A9B
:102D40002568AA6800EB830102EB8303091F1A1FA1
:102D5000814215D391ED001AB4EE410AF1EE10FA5A
:102D600058BFB0EE401AB4EE601AF1EE10FA58BF38
:102D7000B0EE601A82ED001A091F121F8142E9D2DB
:102D800030BC704770B54069026811680B685E68B6
:102D90009868D968464318691B689C684E43464347
:102DA000D16804EB8600051F08680268916801EB92
:102DB0008600061FA54213D395ED000AB1EE400A26
:102DC00008F0F6F8F7EE000A70EE200AB7EE000AF7
:102DD00080EE200A86ED000A2D1F361FA542EBD299
:102DE00070BD000030B4406902681168D2680B6899
:102DF0005C689868D968444318691B684C4344432D
:102E0000986813681D68AA6800EB840102EB8403CC
:102E1000091F1A1F814221D3B7EE000ADFED120A03
:102E2000D1ED001A9FED112AB6EE001A01EE821ABA
:102E3000B4EE601AF1EE10FA08DAB5EE401AF1EECF
:102E400010FA05D59FED061A02E000BFB0EE401A59
:102E500082ED001A091F121F8142E1D230BC704777
:102E600000000000010000000100803FCDCC4C3E7E
:102E700070B54069026811680B685E689868D96827
:102E8000464318691B689C684E434643D16804EB6F
:102E90008600051F08680268916801EB8600061F1E
:102EA000A54209D395ED000A08F082F886ED000AE4
:102EB0002D1F361FA542F5D270BD000070B54069C8
:102EC000026811680B685E689868D968464318699B
:102ED0001B689C684E434643D16804EB8600051F7F
:102EE00008680268916801EB8600061FA54209D3B5
:102EF00095ED000A01F012FC86ED000A2D1F361F29
:102F0000A542F5D270BD000070B540690268116835
:102F10000B685E689868D968464318691B689C68A6
:102F20004E434643D16804EB8600051F08680268DB
:102F3000916801EB8600061FA5420FD395ED000AAC
:102F400008F036F8F7EE000A30EE200A08F0B4F880
:102F500086ED000A2D1F361FA542EFD270BD00007E
:102F600030B4406902681168D2680B685C68986880
:102F7000D968444318691B684C43444398681368F4
:102F80001D68AA6800EB840102EB8403091F1A1F65
:102F900081420FD391ED000AF0EEC00AB7EE001A9D
:102FA00070EE810A80EE200A82ED000A091F121FCE
:102FB0008142EFD230BC704770B540690268116839
:102FC0000B685E689868D968464318691B689C68F6
:102FD0004E434643D16804EB8600051F086802682B
:102FE000916801EB8600061FA54209D395ED000A02
:102FF00007F082FF86ED000A2D1F361FA542F5D28D
:1030000070BD70B582B0406900680168C0680C6826
:103010000568A268A8680190009213466668E16896
:103020002069246872434A4342432868A168806843
:10303000FFF752FA02B070BD30B441690C68806984
:1030400022688368116808680A1D8168E06804685E
:103050002568A86830BCFFF769BB00002DE9F04F78
:103060001E46924686B08846BDF950300F9F17998C
:103070008068119DDDF84C900490BDF95800896876
:10308000421E12FB03F3BDF94820BDF940009B1A14
:10309000BDF84820C318581E2A43A0EB0A0040F090
:1030A000D680BDF95420531E13FB09F35B1BFB189C
:1030B0005A1EA2EB080212B2002A44BF00B2002836
:1030C00040F1C580BDF85800B0F1000F4FF0000E80
:1030D0009FEDC10A00F07D81BDF95050BDF940203F
:1030E000BDF85400002415FB0E2500282DB200F079
:1030F000A480ADF83C70ADF84C90CDF80CE0019494
:10310000ADF80060BDF85440BDF80060DDF804C0C3
:10311000BDF94C00BDF93C20002300FB0C2C0198AC
:10312000039A04FB020046430596019CBDF84C003F
:10313000BDF800204443002A0FFA8CFC24B26AD068
:10314000039EBDF800E00291ADF80280BDF850107A
:10315000714309B20A46AA42F0EE400A039149DAE5
:10316000BDF80290A5EB0208049A01FB09F1644541
:1031700027463ADAACEB04005FEAC07A10D5F24693
:1031800001EB070B0BFB0A3A02EB8A0B9BED001AD3
:10319000B4EE601AF1EE10FA58BFF0EE410A7F1C4F
:1031A000400822D0F24601EB070B0BFB0A3B02EB77
:1031B0008B0B9BED001AB4EE601AF1EE10FA58BFBB
:1031C000F0EE410A7F1C01EB070B0BFB0A3A02EB06
:1031D0008A0A9AED001AB4EE601AF1EE10FA58BF9E
:1031E000F0EE410A7F1C401EDCD1B8F101084944D1
:1031F000BDD10492059A0299D2185B1C01EB8200A2
:103200001BB27345C0ED000AA0DB0299BDF8028035
:103210000396ADF800E0019A521C12B201921046DA
:10322000BDF854209042FFF66DAFBDF83C70BDF87C
:103230004C90DDF80CE0BDF800600EF101000FFAD3
:1032400080FEBDF85800864580F2C38044E7BDF893
:10325000580000284FF0000E4FEA08039FED5E0A69
:1032600000F0B780BDF95000BDF948201EFB00F00A
:10327000A0EB0208BDF94000BDF8542000244044F2
:10328000002A0FFA80F800F09B80ADF83C70ADF892
:103290004450ADF84C90CDF80CE00194ADF80060CE
:1032A0000198BDF94C20019EBDF85440BDF8005076
:1032B00010FB02F2BDF94400101ABDF93C201018B1
:1032C000039A04FB02667543059500B2BDF80050F1
:1032D000002D62D002910021DDF80C70BDF9502064
:1032E00017FB02F5BDF94820AA1A12B24245F0EECA
:1032F000400A43DABDF84450BDF84C60DDF8049054
:1033000003FB02F419FB06FEAEEB050E0FFA8EFC72
:103310000FFA8EFE864527DADDF810E0ADF802A040
:10332000002A58BFBCF1000F16D4BDF802A05245C8
:10333000B8BF9C4510DABDF800A004EB0C0B0BFBEA
:103340000A1A0EEB8A0A9AED001AB4EE601AF1EE30
:1033500010FA58BFF0EE410A0CF1010C8445DFDB96
:10336000CDF810E0BDF802A0521C1C194245C9DB83
:10337000ADF84450ADF84C60CDF80490059E029D28
:10338000BDF800207618491C05EB860409B291426D
:10339000C4ED000AA2DB029903970198BDF85420FE
:1033A000401C00B290420190FFF67AAFBDF83C702D
:1033B000BDF84450BDF84C90DDF80CE0BDF800605D
:1033C0000EF101000FFA80FEBDF858008645FFF6A9
:1033D00049AF06B0BDE8F08F000000CF2DE9F04FF7
:1033E0000F460446104687B0A168BDF95C40BDF9A0
:1033F00054E0189ADDF848A0DDF840809268641E19
:1034000014FB0EFEBDF94C40AEEB040EBDF944407A
:103410007444641E251ABDF84C409946149B5AEA20
:10342000040440F0C180BDF95840A4F1010E1EFB18
:1034300003FEAEEB0A0EC644AEF10104E41B24B257
:10344000002C44BF2CB2002C40F1AE80BDF85C00D3
:103450000024002800F07D81BDF85450BDF954B01F
:10346000BDF9440065432DB2049500261BFB040BF7
:10347000BDF8580000280FFA8BFB00F08D80ADF8E6
:103480004080ADF8503005940196ADF80A9001984F
:10349000BDF95030059CBDF85850BDF940C0BDF88D
:1034A0000A8010FB03F9002305FB0400CC4400FB59
:1034B00008F0B8F1000F0FFA8CFC06905CD0009277
:1034C000ADF80C70049858459FEDA30ADFEDA20AF1
:1034D00040DABDF80C70049C78430A46ABEB040458
:1034E00010EE90EA4FEA00010FFA89FAE2454D46E4
:1034F0002ADAACEB0A00E644C607AEEB0A0E09D5A1
:103500008A440AFB083A02EB8A066D1CD6ED000AD3
:1035100030EE200A400817D001FA85FA6D1C0AFB2C
:10352000083A02EB8A06D6ED000A01FA85F606FB98
:10353000083602EB86066D1C30EE200A96ED001A66
:10354000401E30EE010AE7D17918641ECCD1114635
:1035500000EE90EA069A0098D2185B1CF8EEE00A9A
:1035600000EB82071BB280EE200A434587ED000A7C
:10357000A8DB009ABDF80C700198BDF85830401CCB
:1035800000B298420190FFF682AFBDF84080BDF8CE
:103590005030059CBDF80A90BDF85C00641C24B254
:1035A000844280F2D68057E7BB46BDF85C70002F9E
:1035B0004FF0000E00F0CD80BDF95440BDF94C70C5
:1035C0001EFB04F4E41BADF80840BDF95440BDF8FF
:1035D00058701EFB04F5BDF94C402C1BBDF944503E
:1035E0002C440025002F24B200F0AA80ADF84080C2
:1035F000ADF848A0ADF85030CDF80CE00195019B36
:10360000BDF95080BDF94850BDF940E01F4613FB9D
:1036100008F8039BA8EB0506BDF8585005FB037797
:10362000B64407FB09F7B9F1000F0FFA8EFE0497B5
:103630000FFA86FA73D000925FF00002BDF908809D
:10364000A0459FED450ADFED440A57DA0BFB08FC65
:1036500010EE903AF245574649DAAEEB0A05EE070E
:1036600014D5B8F1000F58BF002F0ED48045B8BF55
:103670005F450ADA0CEB070606FB092601EB860616
:103680005B1CD6ED000A30EE200A7F1C6D082ED0A0
:103690003E462F46B8F1000F05D4002E48BF761CD9
:1036A00011D4804501DB761C1EE0751C5E4509DAED
:1036B000664406FB092601EB86065B1CD6ED000A74
:1036C00030EE200A2E46002E0ED48045B8BF5E454F
:1036D0000ADA0CEB060505FB092501EB85055B1CE9
:1036E000D5ED000A30EE200A761C7F1ED2D108F1FB
:1036F0000108A045DC44ADDB00EE903ADDF8108017
:10370000009B9044521CF8EEE00A03EB880712B2CB
:1037100080EE200A4A4587ED000A8FDB009A019B64
:10372000BDF858505B1C1BB2AB420193FFF667AF6C
:10373000BDF84080BDF848A0BDF85030DDF80CE081
:10374000BDF85C700EF101040FFA84FEBE45FFF671
:1037500033AF07B0BDE8F08F0000000070B401EB9C
:103760008204A14257D2002B51D013F003020D4620
:10377000064611D096ED000AD5ED000AF4EE400A97
:10378000F1EE10FA58BFB0EE600A86ED000A521E44
:10379000361D2D1D002AEDD19A0838D0D5ED000A2E
:1037A000D6ED001AF4EE610AF1EE10FA48BFF0EE21
:1037B000610AC6ED000AD5ED010AD6ED011A96EDB3
:1037C000020AF4EE610AF1EE10FA48BFF0EE610A67
:1037D000C6ED010A95ED021AD6ED031AB4EE401AB1
:1037E000F1EE10FA48BFB0EE401A86ED021AD5EDA0
:1037F000030AF4EE610AF1EE10FA58BFF0EE601A17
:10380000C6ED031A521E10361035002AC6D101EB40
:103810008301A142A7D370BC7047000070B401EBD4
:103820008204A1424FD2002B49D013F003020D466F
:1038300006460ED095ED000A88421CBFD6ED000A60
:1038400030EE800A86ED000A521E361D2D1D002A1C
:10385000F0D19A0833D08842D5ED001A0CD1C6EDCC
:10386000001A95ED010A86ED010AD5ED021AC6EDA2
:10387000021AD5ED031A1BE0D6ED000A30EEA10ABC
:1038800086ED000A96ED011A95ED010AD6ED021AB1
:1038900031EE000A86ED010AD5ED020A31EEA00AEA
:1038A00086ED020A96ED030A95ED031A70EE011AF1
:1038B000C6ED031A521E10361035002ACBD101EB8B
:1038C0008301A142AFD30399A1B300EE101AB8EE61
:1038D000400AF7EE000A80EE800A5BB313F00301A2
:1038E00000F00A80D0ED000A60EE800AC0ED000A08
:1038F000491E00F10400F5D19B081BD0D0ED000A51
:1039000060EE800AC0ED000A5B1E90ED011AD0ED5A
:10391000020A21EE001A80ED011A60EE800A90ED95
:10392000031AC0ED020A21EE001A80ED031A00F11D
:103930001000E3D170BC70472DE9F04F04468EB003
:10394000606900680168C0680D68076829693B699B
:103950000991FA680892D5F80C80A968A269E06913
:103960000790666A206A0D96D4F82CC02C683D68D2
:10397000DCF80070DCF80460A468D5F808E07F4249
:10398000002B009700F0D980019376420C9601FB42
:1039900008F50B95009D009B009F6D42099DCCBFD3
:1039A0000026009EEB1A079DAB4288BF2B46DF190D
:1039B000089B0C9D002B00F0B78008FB06FACDF8A1
:1039C00028A0CDF80C8002920690059604976842D4
:1039D000039F029ADDF82C80CCBF002028467F1B75
:1039E000974288BF17460A9A7F193F1A80184843A2
:1039F0004F4304EB800C11B311F00300724666468E
:103A000000F0068056F8049B42F8049B401EF9D152
:103A1000880814D096ED000A82ED000A401ED6ED0B
:103A2000010AC2ED010A96ED020A82ED020AD6ED04
:103A3000030AC2ED030A103210360028EAD10598B5
:103A4000049A904266DA1046059A821AE2460AEB18
:103A5000870BDA455AD2002954D011F0030056469C
:103A6000F14612D099ED000AD6ED000AF4EE400AB4
:103A7000F1EE10FA58BFB0EE600A401E361D89ED17
:103A8000000A002809F10409ECD1880800F03A8006
:103A9000D6ED000AD9ED001AF4EE610AF1EE10FA43
:103AA00048BFF0EE610AC9ED000AD6ED010AD9ED72
:103AB000011A99ED020AF4EE610AF1EE10FA48BF1C
:103AC000F0EE610AC9ED010A96ED021AD9ED031A6A
:103AD000B4EE401AF1EE10FA48BFB0EE401A89ED8C
:103AE000021AD6ED030AF4EE610AF1EE10FA58BF9D
:103AF000F0EE601A401E1036C9ED031A002809F1D5
:103B00001009C5D10AEB810ADA45A4D3521E0CEB89
:103B1000880C9BD1069845195B1E0EEB810E7FF435
:103B200056AFDDF80C80029A009D0D9B5D19009543
:103B3000019D6D1E01957FF42DAF0EB0BDE8F08F95
:103B40002DE9F04F034697B0586900680168C068D6
:103B50000D680668296934690C91002CF2680B9293
:103B6000A968EA689869DF690497D3F820805F6ADA
:103B70001697D3F82CC02D68DCF804703668DCF892
:103B800000C0D5F808E0D6F80890CCF1000CCDF8CC
:103B900004C000F0328103947F42049E464301FB3F
:103BA00002F4159714961394019C0C9D019E644297
:103BB000019CCCBF0027019F2C1B049DAC4288BFF9
:103BC0002C46A6190B9C159D002C00F00D8102FBC4
:103BD00007FCA7EB060BCDF848C0CDF844B00D9319
:103BE00006920590CDF82880CDF824E00897079636
:103BF000009502940098069ADDF800E00D9B139C56
:103C000040420098CCBF4FF00008DDF80080101A49
:103C1000059A904288BF104686441198A8EB0E0280
:103C200000FB02FC129A099842444A43AEEB080595
:103C300000EB820693F830004D430022002814BFA9
:103C4000149F674689B111F003004B4603D0401E14
:103C500043F8042BFBD1880807D01A605A609A6099
:103C6000DA60401E03F11003F7D10898079B9842D1
:103C700080F2A8801846089BC31AAEEB08000E908D
:103C8000CDF840C00F9494460E98109A8444624533
:103C9000B6460CBF3C4600240EEB8508C6454ED206
:103CA0000022002947D011F00300F246CB4610D085
:103CB0009AED000AF1451CBFDBED000A30EE800AE8
:103CC000521C8BED000A401E0BF1040B0AF1040A92
:103CD000EED1880800F02F800EEB820A09EB8202F9
:103CE000DAED001AF1451CBF92ED000A70EE211AC0
:103CF000C2ED001ADAED011A1CBFD2ED010A70EE16
:103D0000A11AC2ED011A9AED021A1CBF92ED020A25
:103D100030EE011A82ED021ADAED031A1CBFD2ED61
:103D2000030A70EEA11AC2ED031A401E10320028D9
:103D30000AF1100AD4D10EEB810EC645B0D3002C87
:103D40003AD000EE104AB8EE400AF7EE000A80EED4
:103D5000800A002281B311F003004C4600F00B8072
:103D6000D4ED000A60EE800A521CC4ED000A401E29
:103D700004F10404F4D1880800F01E8009EB8202EB
:103D8000D2ED000A60EE800AC2ED000A401E92EDFC
:103D9000011AD2ED020A21EE001A82ED011A60EE3C
:103DA000800A92ED031AC2ED020A21EE001A82ED9A
:103DB000031A02F11002E3D10F985B1E06EB800696
:103DC0007FF462AF00980A9A1018009009EB8109FD
:103DD0000298401E02907FF40DAF0D9B069A059845
:103DE000DDF82880DDF824E0019D169C6519019519
:103DF000039D6D1E03957FF4D7AE17B0BDE8F08F1D
:103E000020F07E40B0F1400162D04FF48022891A48
:103E100000F094804FF40072891A71D0891A63D02F
:103E2000C91F00F08E8040F2F932891A5FD00F3935
:103E300000F08A8040F2F172891A5BD01F3900F0DD
:103E4000868040F6E172891A57D0DFF8D425891AA6
:103E500000F08F804FF4C012891A00F08780DFF8DD
:103E6000C425891A5ED04FF40072891A57D0891A76
:103E700049D0C91F59D040F2F932891A46D00F39BA
:103E800056D040F2F172891A43D01F3953D040F610
:103E9000E172891A40D0DFF88825891A63D04FF47F
:103EA000C012891A5CD0DFF88025891A19D04FF426
:103EB0000062891A0FD04FF48052891A0ED0DFF8B1
:103EC0006C25891A49D04FF4C012891A42D053E0A8
:103ED0000FF2746070470FF27C6070470FF28060E1
:103EE00070470FF2886070470FF28C6070470FF2D6
:103EF000906070470FF2906070470FF294607047C7
:103F00000FF2946070470FF2986070470FF298605C
:103F100070470FF29C6070470FF29C6070470FF281
:103F2000A06070470FF2A06070470FF2A460704766
:103F30000FF2A46070470FF2A86070470FF2A860FC
:103F400070470FF2AC6070470FF2AC6070470FF231
:103F5000B46070470FF2B86070470FF2C4607047EA
:103F60000FF2CC6070470FF2D86070470FF2E0603C
:103F700070470FF2EC6070476FF30D0040F04000A7
:103F8000402809D0DFF8A81488420BD0DFF8A41429
:103F9000884204D07AA070470FF2D46070470FF2C5
:103FA000E86070470FF2F460704720F07E40B0F197
:103FB000400168D04FF48022891A64D04FF4007217
:103FC000891A62D0891A5ED0C91F5CD040F2F932DA
:103FD000891A58D00F3956D040F2F172891A54D04C
:103FE0001F3952D040F6E172891A4ED0DFF83024E2
:103FF000891A4AD04FF4C012891A46D0DFF8242417
:10400000891A40D04FF40072891A3ED0891A3AD0EA
:10401000C91F38D040F2F932891A34D00F3932D062
:1040200040F2F172891A30D01F392ED040F6E17279
:10403000891A2AD0DFF8E823891A26D04FF4C01253
:10404000891A22D0DFF8E023891A1ED04FF40062CB
:10405000891A18D04FF48052891A16D0DFF8CC2371
:10406000891A12D04FF4C012891A0ED06FF30D00C6
:1040700040F0400040281FBFDFF8B4339842DFF81B
:10408000B433984201D1012070470020704720F0DE
:104090007E40B0F1400169D04FF48022891A65D08A
:1040A0004FF40072891A61D0891A5FD0C91F5DD0A0
:1040B00040F2F932891A59D00F3957D040F2F172D3
:1040C000891A53D01F3951D040F6E172891A4DD068
:1040D000DFF84C23891A49D04FF4C012891A45D011
:1040E000DFF84023891A41D04FF40072891A3DD07D
:1040F000891A3BD0C91F39D040F2F932891A35D01C
:104100000F3933D040F2F172891A2FD01F392DD0D8
:1041100040F6E172891A29D0DFF80423891A25D0E4
:104120004FF4C012891A21D0DFF8FC22891A1DD061
:104130004FF40062891A19D04FF48052891A15D0B1
:10414000DFF8E822891A11D04FF4C012891A1EBF75
:104150006FF30D0040F04000402807D0DFF8D03268
:1041600098421CBFDFF8CC32984201D10120704741
:1041700000207047DFF8C01201601C20704700006B
:104180000000000020F07E40B0F1400122D04FF44A
:104190008022891A39D04FF48062891A20D0C91F31
:1041A00036D040F2F932891A1DD00F3933D0A34AE4
:1041B000891A21D04FF48062891A17D0C91F1ED0E6
:1041C00040F2F932891A14D00F391BD09C4A891A4F
:1041D00003D023E00FF2703070470FF27830704751
:1041E0000FF2943070470FF2983070470FF2B030F2
:1041F00070470FF2B43070470FF2CC3070470FF2B7
:10420000D03070470FF2D03070470FF2DC3070477B
:104210000FF2DC3070470FF2E0307047800B800304
:1042200040F04000402807D0814988420AD08149A7
:10423000884204D079A070470FF2744070470FF2A3
:10424000884070470FF29440704720F07E40B0F1F4
:1042500040012DD04FF48022891A29D04FF480627A
:10426000891A25D0C91F23D040F2F932891A1FD0EC
:104270000F391DD0714A891A1AD04FF48062891AF9
:1042800016D0C91F14D040F2F932891A10D00F3954
:104290000ED06B4A891A1FBF800B800340F040008C
:1042A000402805D0624B98421CBF624B984201D116
:1042B0000120704700207047624901600C20704760
:1042C00001464020C1F34342022A04D15E4808401F
:1042D00040F4802037E021F07E42554BD21A2DD099
:1042E0004FF48063D21A1BD0D21F29D040F2F93389
:1042F000D21A17D00F3A25D0504BD21A18D04FF4FB
:104300008063D21A10D0D21F14D040F2F933D21ADF
:104310000CD00F3A10D04A4BD21A14D14B4812E0AD
:104320004B4810E04B480EE04B480CE04B480AE08D
:10433000404808E04A4806E04A4804E0184602E0DF
:10434000494800E049484A004CBF4FF080420022F3
:1043500010438A004CBF4FF0005200221043090165
:104360004CBF4FF00061002108437047024622F025
:104370007E40403822D04FF48021401A30D04FF494
:104380008061401A1ED0C01F2CD040F2F931401A73
:104390001AD00F3828D02949401A1BD04FF4806119
:1043A000401A13D0C01F17D040F2F931401A0FD075
:1043B0000F3813D02249401A02D017E040201FE0E6
:1043C00022481DE022481BE0224819E0224817E05D
:1043D000224815E0174813E0214811E021480FE07A
:1043E00013480DE020480BE0204809E0C2F3C0511B
:1043F000C2F30D00002914BF40F4040040F48020F3
:10440000510048BF40F08040910048BF40F000504C
:10441000110148BF40F0006070470000000000003C
:104420000FE82B00F1F73B00F1FFB90000F04D0061
:10443000400004004000840004250608F1F77F00D6
:10444000F107FE0074250608FF3F8000401082013E
:104450004004040040080400400484004008840034
:10446000470484004F088400470404004F080400F8
:1044700009B900207047C21102F07F02C0F38233F5
:104480009B185943C91DC9084315C90003F003030C
:104490004FEA604CD9400CF00F0CBCF1040F0AD06D
:1044A000BCF1080F02BFC0F38230821801EB022179
:1044B000C91DC8087047C0F38230821801EB021191
:1044C000C91DC808704709B900207047C21102F021
:1044D0007F02C0F382339A185143C91DC9084015A1
:1044E000C90000F00300C140C91DC808704709B9E0
:1044F000002070474214C90002F00F02042A02D0C3
:10450000082A09D010E0C31103F07F03C0F3823200
:10451000D218A1EB021107E0C21102F07F02C0F332
:1045200082339A18A1EB0221421502F00302914056
:10453000C91DC211C90802F07F02C0F38230C90050
:104540008018B1FBF0F07047464D545F4E4F4E451A
:1045500000000000464D545F464C4F41540000009F
:10456000464D545F464C4F4154363400464D545FDF
:10457000464C4F4154313600464D545F553800008B
:10458000464D545F55313600464D545F5533320029
:10459000464D545F55363400464D545F5534000047
:1045A000464D545F53380000464D545F533136003A
:1045B000464D545F53333200464D545F53363400FA
:1045C000464D545F53340000464D545F5100000087
:1045D000464D545F51370000464D545F5131350010
:1045E000464D545F51333100464D545F55510000E4
:1045F000464D545F55513700464D545F5551313546
:1046000000000000464D545F55513331000000005A
:10461000464D545F4C5554345F464C4F4154000056
:10462000464D545F4C5554385F464C4F4154000042
:10463000464D545F4C5554345F51313500000000F5
:10464000464D545F4C5554385F51313500000000E1
:10465000464D545F4C5554345F5551313500000080
:10466000464D545F4C5554385F555131350000006C
:1046700041495F41525241595F464F524D41545F4B
:104680004E4F4E450000000041495F415252415992
:104690005F464F524D41545F5100000041495F4118
:1046A000525241595F464F524D41545F555100009F
:1046B00041495F4255464645525F464F524D41542F
:1046C0005F4E4F4E4500000041495F42554646450A
:1046D000525F464F524D41545F51000041495F4285
:1046E00055464645525F464F524D41545F55510025
:1046F00030B50446084681B011461A46002500959B
:104700006B4615F0E7FC94ED000ADDED000A70EE53
:10471000200AC4ED000A01B030BD0000F0EE400AEE
:10472000F5EE400AF1EE10FA9FED280A01DBB1EE3A
:10473000E00A704706F03CBC06F038BD06F0DCBB72
:10474000B5EE400AF1EE10FA48BF9FED200A70471F
:10475000B5EE400AF1EE10FA48BF20EE200A70478D
:1047600000B581B0B1EE400A06F022FCF7EE000A77
:1047700030EE200AB7EE001A81EE000A01B000BD4B
:10478000F0EE400A9FED121AB6EE000A00EE810A22
:10479000DFED100AB4EE600AF1EE10FA07DAB5EEBA
:1047A000400AF1EE10FA04D59FED080A7047B7EE03
:1047B000000A7047B5EE400AF1EE10FACCBF9FED4B
:1047C000060A9FED060AB8EEC00A70470000000016
:1047D000CDCC4C3E0100803F01000000FFFFFFFFF9
:1047E00030EE200A704730EE600A704720EE200A53
:1047F000704780EE200A7047F4EE400AF1EE10FA9E
:1048000058BFB0EE600A7047B4EE600AF1EE10FADD
:1048100058BFB0EE600A704780B514460A4A156862
:10482000064684B00F46E86854B1084D1A46084958
:10483000009733460195029400F052F903F0B6FD5B
:10484000044D2C46F2E700BF403E06081844060817
:10485000284406082444060808B513460022FFF73A
:10486000DBFF00BF49F2C941C0F6000100F04CB9BE
:1048700008B5838903F400731BB213B9603020F0CC
:104880002DFB002008BD00BF08B5838903F4007329
:104890001BB213B9603020F0FDFA002008BD00BF44
:1048A000002310B504468181C281036043608360A8
:1048B0008367036143618361194600F17000082238
:1048C00000F08CFD45F64103C0F60003636245F637
:1048D0007103C0F60003A36245F6B903C0F60003F6
:1048E000E36245F6F103C0F600032462236310BDC2
:1048F00070B5CD010E4605F10C0100F0A7F9044694
:1049000040B100F10C00002184E84200A0602A467A
:1049100000F064FD204670BD43F64063C0F6060318
:104920001868FFF79FBF00BF41F24800C2F20000C5
:1049300020F0B0BA41F24800C2F2000020F0CEBA36
:10494000014820F0A7BA00BF58100020014820F00D
:10495000C5BA00BF5810002070B50446FFF7F0FF3D
:10496000A569002D2CD1184B1B689C4205D0012352
:10497000A361BDE87040FFF7E9BF144BE563012672
:10498000236225646564A661204600F021F860601A
:10499000204600F01DF8A060204600F019F8042120
:1049A000E0602A466068FFF77BFFA0680821324676
:1049B000FFF776FFE06812210222FFF771FFA66180
:1049C000BDE87040FFF7C2BF403E060865480008DA
:1049D00070B582B001A90646012020F0D7FAFFF792
:1049E000A3FF284B1D68AB69002B35D03C356B68A5
:1049F000AC68013B04D52BE0013B80345A1C27D026
:104A0000B4F90C20002AF7D14FF6FF730025E3819B
:104A10000123A381A56725666566A566E566FFF7A0
:104A200089FF01A9019820F0B1FA2560A5606560B1
:104A300025616561A56104F170002946082200F036
:104A4000CDFC6563A563A564E564204602B070BD36
:104A50002C682CB12546CAE72846FFF77DFFC5E73D
:104A600030460421FFF744FF044628600028F1D1B6
:104A7000FFF760FF019801A920F088FA0C2333604A
:104A8000E3E700BF403E060808B5FFF74DFF1BF007
:104A90008FF844F68901C0F60001BDE8084000F037
:104AA00033B800BF08B51BF083F844F67101C0F6B7
:104AB000000100F029F8BDE80840FFF73BBF00BF48
:104AC0000CB410B582B004AC54F8042B2346019406
:104AD00001F080F902B0BDE8104002B0704700BF9D
:104AE0000EB430B582B005AB054653F8044B0193C4
:104AF0001BF05EF829462246019B01F06BF902B0DB
:104B0000BDE8304003B070472DE9F04110F13C069C
:104B1000884619D000277568B468013D0ED4A38972
:104B2000013D43B1012B06D9B4F90E3001332046C3
:104B300001D0C047074380346B1CF0D13668002E8B
:104B4000E9D13846BDE8F08137463846BDE8F08106
:104B50002DE9F84310F13C06804689461AD000271B
:104B60007568B468013D0FD4A389013D4BB1012B99
:104B700007D9B4F90E3001332146404601D0C84769
:104B8000074380346A1CEFD13668002EE8D13846DE
:104B9000BDE8F88337463846BDE8F883F0B4124ED6
:104BA000B3685F6827F003070F2FD4BF00210121EE
:104BB0003A46022506EB8504E3689C4207D0586814
:104BC000DB6820F0030001319C420244F7D102353A
:104BD000B5F5807FEED1054B18685960801AD86111
:104BE0001A625F62F0BC7047640900206C100020FC
:104BF000F8B541F26C040646C2F2000408460F46BE
:104C00001AF0CAFFFFF7CAFF0FCC35460FC50FCC0D
:104C10000FC594E8030085E8030038461AF0C2FF88
:104C20003046F8BD10B504461AF0C2FF2146BDE873
:104C3000104000F00BB800BF10B504461AF0B8FFE2
:104C40002146BDE8104004F06DBE00BF2DE9F04FD5
:104C500001F10B05162D83B006462CD925F007056A
:104C6000EB0F8D422CBF194643F0010100292BD1D7
:104C700030461AF091FFB5F5FC7F29D2B94F4FEAC3
:104C8000D50C07EBCC03DC689C4200F0EE81636836
:104C9000E268A16823F00303E318CA6058689160D2
:104CA00040F00100586030461AF07CFF083420467E
:104CB00003B0BDE8F08F002310258D422CBF1946AC
:104CC00043F001010029D3D00C2333600024EEE728
:104CD0005FEA552C04BF4FEAD50C4FEA4C0140F077
:104CE0008480A04F07EB8101CC68A14206D10DE082
:104CF000002B80F23B81E468A14207D0626822F079
:104D00000302531B0F2BF3DD0CF1FF3C0CF1010CE4
:104D1000944B3C6903F1080E744508BFD3F8049026
:104D200022D0616821F003014A1B0F2A00F36A8137
:104D3000002AC3F814E0C3F810E061DAB1F5007F8F
:104D400080F03681CA0803EBC2014FF001099210CE
:104D500009FA02F95A688868E16049EA0209A06024
:104D6000C3F804908C60C46001204FEAAC0300FAE1
:104D700003F048454ED819EA000F07D12CF0030C78
:104D8000400019EA000F0CF1040CF9D007EBCC0934
:104D90004C46E046E3689C4207D146E1002A80F297
:104DA0006E81DB689C4200F04081596821F003016C
:104DB0004A1B0F2AF2DD1C465919D86854F808CF4F
:104DC0008A5045F0010542F00102CCF80C00C0F811
:104DD00008C05D6079613961C1F80CE0C1F808E094
:104DE0004A6030461AF0DEFE61E7BCF1040F00F2C3
:104DF000CB804FEA951C0CF1380C4FEA4C0170E760
:104E0000611830464B6843F001034B601AF0CAFE4C
:104E100008344CE7BC68636823F003094D4504D8A7
:104E2000C5EB09030F2B00F38F80DFF83CA1D7F807
:104E30000834DAF80010013329441BBF01F20F4196
:104E400021F47F7B01F1100B2BF0030B04EB090223
:104E50003046594601921AF049FEB0F1FF3F8046B4
:104E6000019A00F05381824200F21F81DAF8043087
:104E700042455B44CAF8043000F05181D7F8081469
:104E800001310DBF374BC2EB08029B18C3F80884F1
:104E900018BFCAF8043018F007021CBFC2F108039B
:104EA000984408EB0B0314BFC2F581624FF4806293
:104EB0009B059B0DC3EB020B304659461AF016FEBC
:104EC000431C00F03881C8EB00025A4442F0010252
:104ED000DAF80430C7F808805B44BC42CAF80430F2
:104EE000C8F8042015D0B9F10F0F40F2FE806268B7
:104EF000A9F10C0121F00701601802F0010E41EA4E
:104F00000E0E05220F29C4F804E04260826000F210
:104F10001681DAF82C20BC68934284BF124AD3620F
:104F2000DAF83020934284BF0F4A1363626822F09C
:104F300003029542C5EB020301D80F2B04DC304677
:104F40001AF030FE0024B2E6621943F0010345F086
:104F50000105656030465360BA601AF023FE0834DC
:104F6000A5E600BF6409002068100020A218E368CD
:104F70005068A16840F001005060CB6099603046F5
:104F80001AF010FE083492E6BCF1140F9CBF0CF12D
:104F90005B0C4FEA4C017FF6A4AEBCF1540F00F25B
:104FA0008D804FEA153C0CF16E0C4FEA4C0198E6EF
:104FB0004B0A042B72D9142B9CBF03F15B094FEAF7
:104FC000490008D9542B00F2C2804FEA113909F187
:104FD0006E094FEA490007EB8000DFF8B48183686F
:104FE000834275D05A6822F00302914202D29B6834
:104FF0009842F7D1D968D7F80490E160A360DC60EB
:105000008C60B1E6611942F0010045F00105656070
:10501000596119614860C1F80CE0C1F808E08A5094
:1050200030461AF0BFFD083441E608F101080834A3
:1050300018F0030F7FF4AEAE4B461CF0030FA3F144
:1050400008020CF1FF3C00F09A801B689342F4D0F8
:105050007B68400098423FF6DDAE00283FF4DAAEB0
:10506000034200F09180C44690E604F108036469AD
:10507000A34208BF0CF1020C3FF44AAE07E65918F0
:105080001C464868DB6854F8082F40F0010048606F
:10509000D3609A6030461AF085FD08E64FEA911910
:1050A00009F138094FEA490095E7BC423FF4DEAE0A
:1050B000374B9C68626822F003023AE7BCF5AA7F8E
:1050C00019D84FEAD53C0CF1770C4FEA4C0108E6B1
:1050D000D8F804204FEAA909012101FA09F141EAAF
:1050E0000209C8F80490194687E70123C8F804307C
:1050F000444600221DE740F254539C450BD84FEA2A
:10510000954C0CF17C0C4FEA4C01EAE5BC686268F6
:1051100022F003020DE7FC214FF07E0CE1E5910542
:10512000890D00297FF4AAAEBA680BEB090141F0A2
:1051300001015160EDE601224FF0000BC8E6304658
:1051400004F1080104F0EEFB124B5B68E1E6B3F5F5
:10515000AA7F06D84FEAD13909F177094FEA490009
:1051600039E740F25452FC2093424FF07E099EBF33
:105170004FEA914909F17C094FEA49002BE77B6826
:1051800023EA00037B6064E7400008F1040867E756
:105190006409002068100020032A70B422D941EA73
:1051A00000039B0713D005780C78013A0023A54231
:1051B00006D01BE010F8015F11F8014FA54215D190
:1051C000934203F10103F5D1002070BC70470D68D4
:1051D00006680C46034604310430AE4208D1043A56
:1051E000032AF4D8002ADED11046EEE7281BECE7AC
:1051F00021461846002AD6D1F6E700BF0F2AF0B4A0
:105200003FD941EA00039B073DD10C4603461546B2
:1052100026681E6066685E60A6689E60E668103D4F
:10522000DE60103410330F2DF2D8A2F1100525F0F6
:105230000F0502F00F041035032C00EB0503294481
:1052400023D9043C4FEA940C01EB8C070C4604373D
:105250001D4654F8046BBC4245F8046BF9D10CF1BF
:105260000104A40002F0030209191B193AB1013923
:105270009A1811F8014F03F8014B9342F9D1F0BC91
:1052800070470346F2E70346F1E72246EEE700BF28
:105290008842F0B411D98C18A0420ED28518531E42
:1052A0004AB121462A4611F8014D013BB3F1FF3FB7
:1052B00002F8014DF7D1F0BC70470F2A3FD941EAFF
:1052C00000039B073DD10C460346154626681E6029
:1052D00066685E60A6689E60E668103DDE60103419
:1052E00010330F2DF2D8A2F1100525F00F0502F0B2
:1052F0000F041035032C00EB0503294423D9043C8B
:105300004FEA940C01EB8C070C4604371D4654F809
:10531000046BBC4245F8046BF9D10CF10104A40004
:1053200002F0030209191B19002AC4D001399A1886
:1053300011F8014F03F8014B9342F9D1BBE7034643
:10534000F2E70346F2E72246EEE700BF531E70B4D1
:105350000446C018451C15F0030FC9B23BD0FAB182
:10536000E25C8A421DD0024605E0E3B112F8014D2D
:10537000013B8C4215D0013812F0030FF5D1032BFD
:1053800013D85A1E7BB103788B420AD0431E03E028
:105390000478013A8C4204D01846013B002AF7D128
:1053A000104670BC70471846FBE741EA012646EA02
:1053B0000646C21E1046043A04687440A4F1013542
:1053C00025EA040414F0803F03D1043B032B10466C
:1053D000F0D80330D5E71346D1E700BF70B4840797
:1053E000034642D0541E002A3DD0CEB203E0621ED6
:1053F000002C38D0144603F8016B9A071D46F6D1ED
:10540000032C29D9CAB20F2C42EA022242EA0242F4
:1054100084BF2B46264611D9103E1A605A609A6006
:10542000DA6010330F2EF7D8A4F1100323F00F0326
:1054300004F00F041033032C1D440DD92E462346CF
:10544000043B032B46F8042BFAD8231F23F0030355
:10545000043304F00304ED182CB1C9B22C1905F87B
:10546000011BA542FBD170BC704705461446C7E737
:105470000EB410B5044683B018B183690BB9FFF7B9
:105480006BFA074A126806AB9168059A01932046A9
:1054900001F02AFB03B0BDE8104003B0704700BF25
:1054A000403E06080FB410B582B01AF081FB0446E6
:1054B00018B183690BB9FFF74FFA074A126805ABB9
:1054C0009168049A0193204601F00EFB02B0BDE8FA
:1054D000104004B0704700BF403E060870B50D464E
:1054E00082B01446064610B18369002B45D0304B7C
:1054F0009C4247D02F4B9C424FD02F4B9C4202BF27
:105500002E4B1B68DC68012001A91FF03FFDA38919
:1055100003F400731BB2D3B1A368013B002BA3605B
:105520001EDB23681D70236813F8015B2360A389C9
:1055300003F400731BB21BB904F160001FF0CEFC32
:10554000019801A91FF022FD284602B070BD04F1A8
:1055500060001FF09FFCA368013B002BA360E0DA12
:10556000A269934212DB23681D70236819780A2907
:1055700017D001330D462360D9E7FFF7EDF90C4B47
:105580009C42B7D10D4B1B685C68BCE7294630468E
:10559000224602F0FBFD0546C9E7084B1B689C68E4
:1055A000B1E73046224602F0F1FD0546BFE700BFF5
:1055B000203E0608003E0608E03D0608403E06087C
:1055C00030B583B005460C461AF0F2FA20B11AF055
:1055D000EFFA8369002B30D02E4B9C4234D02E4BF7
:1055E0009C4252D02D4B9C4202BF2D4B1B68DC6865
:1055F000012001A91FF0CAFCA38903F400731BB2A8
:10560000002B25D0A368013B002BA36029DB236876
:105610001D70236813F8015B2360A38903F40073F2
:105620001BB21BB904F160001FF058FC019801A9DE
:105630001FF0ACFC284603B030BD1AF0B9FAFFF7F2
:105640008BF9144B9C42CAD1154B1B685C68CFE7A1
:1056500004F160001FF01EFCA368013B002BA36057
:10566000D5DAA269934208DB23681D7023681D7890
:105670000A2D02D001332360CFE71AF099FA2946A8
:10568000224602F083FD0546C7E7054B1B689C6870
:10569000AEE700BF203E0608003E0608E03D0608D3
:1056A000403E060830B5054689B008460C4600F075
:1056B00023FB264A0494431C039304AB06920193F4
:1056C0000122022305900792029315B1AB69002BCA
:1056D00037D01F4B1B689C68012069461FF056FCA1
:1056E000A38903F4007212B2002A24D003F40052FA
:1056F00012B232B9A26F43F4005322F40052A381D4
:10570000A2672846214601AA04F0D4F9A38903F42C
:1057100000731BB200280CBF0A254FF0FF351BB9E0
:1057200004F160001FF0DAFB009869461FF02EFCC0
:10573000284609B030BD04F160001FF0ABFBA3891F
:10574000D4E72846FFF708F9C3E700BF5844060826
:10575000403E060810B504461AF02AFA2146BDE874
:105760001040FFF79FBF00BF38B50C4609680546DB
:1057700009B1FFF7F9FF28462146BDE8384004F09B
:10578000D1B800BF2D4B1B68984270B5054654D068
:10579000C369EBB1DA68B2B100231E4652F8231098
:1057A00041B10C68284604F0BDF82146002CF8D120
:1057B000EB69DA680136202E3346EFD128461146D0
:1057C00004F0B0F8EB69196811B1284604F0AAF8A2
:1057D000696911B1284604F0A5F8E96911B12846B4
:1057E00004F0A0F8296B11B1284604F09BF8696B0E
:1057F00011B1284604F096F8A96B11B1284604F0BF
:1058000091F8E96C11B1284604F08CF8A96C11B13B
:10581000284604F087F8E96A11B1284604F082F8B6
:10582000AB6953B12B6A0BB128469847E96B21B19C
:105830002846BDE87040FFF797BF70BD10090020F3
:1058400010B50C46B1F90E101AF0B4FA002807DBB7
:10585000D4E91623121843EBE073C4E9162310BDF4
:10586000A38923F48053A38110BD00BF002070479B
:10587000F0B50C46898901F4807C0FFA8CFC83B06A
:10588000074616461D46BCF1000F08D00223B4F9A6
:105890000E100093002200231AF0DCFAA18921F4F3
:1058A0008051A181B4F90E10384632462B4603B020
:1058B000BDE8F0401AF02EBA10B582B00C46009345
:1058C000B1F90E10D3171AF0C5FAA389B1F1FF3F51
:1058D00008BFB0F1FF3F04BF23F48053A38104D07D
:1058E000C4E9160143F48053A38102B010BD00BF88
:1058F000B1F90E101AF0C6B9C9B2F0B400294BD0F4
:1059000082070FD00378002B71D0994242D0431CFC
:1059100005E013F8012B002A3BD091423AD09A07B8
:105920001846F6D10368A3F1013222EA030241EAE4
:10593000012712F0803F47EA07471CD17B40A3F1C3
:10594000013222EA030313F0803F14D1021D02E06A
:1059500014F0803F0FD1104652F8043BA3F10136FA
:1059600087EA030426EA0303A4F1013513F0803F1C
:1059700025EA0404ECD00378002B38D0994209D0F2
:10598000431C01E0914205D0184613F8012B002A70
:10599000F8D11046F0BC704783070BD00378002B7A
:1059A000F8D0431C03E002780133002AF2D09907B3
:1059B0001846F8D10368A3F1013222EA030313F079
:1059C000803F0AD1021D104652F8041BA1F1013498
:1059D00024EA010111F0803FF5D00378002BD9D0E3
:1059E000431C184601330278002AFAD1D2E7184640
:1059F000D0E700BF40EA010C1CF0070F40F0238005
:105A0000BDF1100DCDE90245CDE900676FF000064C
:105A10004FF00007F0E80223F1E80245A24282FAC3
:105A200046FCA7FA86FC08BFBCF1000F40F0ED80F1
:105A3000AB4283FA46FCA7FA86FC08BFBCF1000F14
:105A400040F0DF80E6E710F0030C00F0278020F044
:105A5000030050F8042B5FEACC7C00F00B8080F050
:105A6000128011F801CB5FFA92F3B3EB0C0C40F00B
:105A700013808BB111F801CB5FFAA2F3B3EB0C0CDE
:105A800040F00A8043B111F801CB5FFAB2F3B3EBF7
:105A90000C0C40F001800BB960467047BDF1100D51
:105AA000CDE90245CDE900676FF000064FF0000731
:105AB00011F0030C40F0318010F0040F00F00E8064
:105AC00050F8042B51F8044BA24282FA46FCA7FA84
:105AD00086FC08BFBCF1000F40F0978011F0040F66
